:020000040800F2
:1000000010070020BD010008350F0008310F00085F
:10001000330F0008C3020008311000080000000080
:10002000000000000000000000000000390F000880
:10003000D102000800000000370F00083B0F000845
:10004000D7010008D7010008D7010008D701000830
:10005000D7010008D7010008D7010008D701000820
:10006000D7010008D7010008D7010008D701000810
:10007000D7010008C5020008D7010008D701000811
:10008000D7010008D7010008D701000800000000D0
:10009000000000000000000000000000D701000880
:1000A000D7010008D7010008D7010008D7010008D0
:1000B000D7010008D7010008D7010008D7010008C0
:1000C000D7010008D7010008D7010008D7010008B0
:1000D000D7010008D7010008D7010008D7010008A0
:1000E000D7010008D7010008D70100080000000070
:1000F0000000000000000000000000000000000000
:1001000000000000000000000000000000000000EF
:100110000000000000000000D7010008D70100081F
:1001200000F002F800F03AF80AA090E8000C8244CF
:100130008344AAF10107DA4501D100F02FF8AFF2AC
:10014000090EBAE80F0013F0010F18BFFB1A43F0B5
:1001500001031847F00F000010100000103A24BFF0
:1001600078C878C1FAD8520724BF30C830C144BF1C
:1001700004680C607047000000230024002500265E
:10018000103A28BF78C1FBD8520728BF30C148BFFA
:100190000B6070471FB51FBD10B510BD00F058F8BB
:1001A0001146FFF7F7FF00F055FF00F076F803B4B3
:1001B000FFF7F2FF03BC00F07DF80000094880471C
:1001C00009480047FEE7FEE7FEE7FEE7FEE7FEE739
:1001D000FEE7FEE7FEE7FEE704480549054A064B51
:1001E00070470000950F0008210100081001002051
:1001F0001007002010030020100300204FF0000221
:1002000000B5134694469646203922BFA0E80C500C
:10021000A0E80C50B1F12001BFF4F7AF090728BFE7
:10022000A0E80C5048BF0CC05DF804EB890028BF63
:1002300040F8042B08BF704748BF20F8022B11F08C
:10024000804F18BF00F8012B704770477047704708
:10025000754600F02BF8AE4605006946534620F07F
:100260000700854618B020B5FFF7B6FFBDE820406F
:100270004FF000064FF000074FF000084FF0000B62
:1002800021F00701AC46ACE8C009ACE8C009ACE815
:10029000C009ACE8C0098D46704710B50446AFF3FD
:1002A00000802046BDE81040FFF781BF004870473E
:1002B000B000002001491820ABBEFEE72600020076
:1002C0007047FEE7014800F0D5B800006C00002040
:1002D000704772B6FEE770B54379012B15D0012443
:1002E00044710223037103681D6801F010014FF48B
:1002F0007C668E4042F08002B5438A4015431D6003
:10030000047100214171084670BD022070BD70B5B6
:100310004379012B1CD00126467102230371056825
:100320002B6802F0100440F6FE72A2409343D1E91C
:1003300000210A43A2401A432A6001680A68C023C8
:10034000A3409A430A60067100214171084670BDBE
:10035000022070BD70B5040003D02079002510B1D3
:1003600005E0012070BD6571204600F007F802200D
:100370002071256101202071002070BDF0B585B08D
:1003800000250646009501950295039500681C49D5
:10039000884232D11B49C86940F00050C861C86921
:1003A00000F000500490886940F00400886188697A
:1003B000102700F0040004900320CDE90070694686
:1003C000114800F02FF9124C1048C4E900078020B2
:1003D000C4E90250C000C4E904502020C4E9060565
:1003E000204600F0F1F808B1FFF773FF0948C16932
:1003F00041F40061C161B460666205B0F0BD000007
:10040000007400400010024000080140300002402B
:100410006C0000200000014070B54279012A1ED016
:1004200001224271022303710468266801F010035F
:1004300002FA03F52E4326600029016811D00C68EA
:1004400004F470153C249C40A54203D14B6843F052
:1004500002034B60027100214171084670BD022009
:1004600070BD0B68C3F383030F2BF3D14B6843F0CC
:100470000103EEE72DE9F05FC16B0C6801680B68C2
:10048000D0F840C0042202FA0CF2494DDFF824A152
:10049000494E4A4FDFF828B1DFF828E122422CD03C
:1004A0005A072AD50A68920603D40A6822F0040281
:1004B0000A600168A94201D1042219E0514501D125
:1004C000402215E0B14202D14FF4806210E0B942FF
:1004D00002D14FF480420BE0594502D14FF4802203
:1004E00006E0714502D14FF4800201E04FF08062D6
:1004F0002F4908394A60C16A3BE04FF0020808FA08
:100500000CF818EA040F4FF000094FF0010235D043
:100510005FEA837832D50B689B0605D40B6823F01D
:100520000A030B6080F821200168A94201D1022250
:1005300019E0514501D1202215E0B14202D14FF41A
:10054000007210E0B94202D14FF400520BE059455D
:1005500002D14FF4003206E0714502D14FF400128F
:1005600001E04FF00072124908394A6080F820908B
:10057000816A00291AD0BDE8F05F0847082505FA0E
:100580000CF5254212D01B0710D50B6823F00E0383
:100590000B6090F84010C36B02FA01F1596082635E
:1005A00080F8212080F82090016BE2E7BDE8F09F01
:1005B000080002401C00024030000240440002409B
:1005C000580002406C00024030B528B308C81349F7
:1005D00014221944B1FBF2F18900C163104981630F
:1005E000022141771A6843F6F0718A43D0E900147A
:1005F0002143D0E902452C43214304692143446946
:100600002143846921431143196000214163012280
:1006100042770177084630BD012030BDF8FFFDBFAD
:10062000000002402DE9F84FDFF8B891002409F1ED
:10063000040A0AF1040B23460F270BF1040EC9E04C
:100640000125A5402A40AA427DD1674ED1F804C0B9
:10065000ACEB0608B44532D014DCBCF1030F3AD041
:1006600009DCBCF1000F2AD0BCF1010F1CD0BCF199
:10067000020F31D11DE0BCF1110F17D0BCF1120FE8
:100680002AD119E0B8F5881F19D006DCB8F5803FEB
:1006900015D0B8F5801F1FD111E0B8F5001F0ED09E
:1006A000B8F5041F18D10AE0CB6815E0CB681B1D14
:1006B00012E0CB6808330FE0CB680C330CE08B689A
:1006C0002BB1012B4FF0080303D0456104E0042354
:1006D00002E0056100E00023FF2A01D8064601E0A0
:1006E00000F104064FEA840501D9A5F12005D6F8EA
:1006F000008007FA05FC28EA0C0803FA05F548EA29
:100700000508C6F800804D68ED0062D5374DAE692A
:1007100046F00106AE61AD6924F0030605F001055F
:100720000095334D06EB050CDCF80850A607360F94
:1007300007FA06F825EA0805DFF8B880404503D136
:100740004FF0000817E044E0DFF8AC80404502D1EC
:100750004FF001080FE0DFF8A480404502D14FF0D0
:10076000020808E0DFF89880404502D14FF0030806
:1007700001E04FF0040808FA06F848EA0508CCF84A
:1007800008804D68D9F80060ED034D4601D5164349
:1007900000E096432E604D68DAF80060AD035546E0
:1007A00001D5164300E096432E604D68DBF80060EB
:1007B000ED025D4601D5164300E096432E604D687C
:1007C000DEF80060AD02754601D5164300E09643A1
:1007D0002E60641C0D682A46E5407FF431AFBDE809
:1007E000F88F0000000401400000111000100240CA
:1007F0000000014000080140000C014000100140D1
:10080000001401400148806870470000000000208B
:10081000024881680278114481607047000000201E
:1008200010B5032000F074F8002000F005F800F087
:1008300023F8002010BD000070B50D4D04464FF4A4
:100840007A712878B1FBF0F00A490968B1FBF0F041
:1008500000F0B2FA48B9102C07D200222146501EEF
:1008600000F036F800206C6070BD012070BD000003
:10087000000000200C0000200C4808B5816941F000
:1008800001018161816901F001010091C16941F0BB
:100890008051C161C06900F08050009004484168F7
:1008A00021F0E06141F00071416008BD001002409C
:1008B00000000140002809DB00F01F0201219140E7
:1008C0004009800000F1E020C0F8001170470000EE
:1008D000F0B40E4B1B680C46C3F30223C3F10705AB
:1008E000042D00D90425191D072901D2002300E099
:1008F000DB1E012606FA05F1491E214099409E4063
:10090000761E16403143F0BC00F093BB0CED00E0C6
:10091000064900F0070208684FF6FF03184040EA56
:100920000220034A10430860704700000CED00E00D
:100930000000FA052DE9F041050027D02868334C66
:10094000810712D5400703D5606840F4E06060601D
:100950002878000703D5606840F4605060606068E4
:10096000A96820F0F000084360602878C00729D00B
:100970006868012804D02168022804D0890703E0B0
:100980002168890300E08901002902DB0120BDE81C
:10099000F081616821F0030101436160FFF732FFDC
:1009A000064641F2883706E0FFF72CFF801BB8426D
:1009B00001D90320EBE76068696800F00C00B0EB38
:1009C000810FF1D12878400705D56068E96820F4E7
:1009D000E060084360602878000706D560682969F0
:1009E00020F4605040EAC100606000F017F86168D0
:1009F000074AC1F30311515CC84006490860064824
:100A00000068FFF719FF0020C1E700000010024056
:100A1000341100080C0000200400002013A188B04D
:100A20000FC98DE80F0015A10DF1100C0FC98CE84E
:100A30000F00164A5168164801F00C03042B10D021
:100A4000082B0ED1C1F38343C9031DF803000AD557
:100A5000D16A04AA01F00F01515C0D4A5043B0FB6A
:100A6000F1F008B070470B494843FAE70203040568
:100A7000060708090A0B0C0D0E0F101001020304E3
:100A800005060708090A0B0C0D0E0F100010024096
:100A900000127A0000093D002DE9F84F040070D0E3
:100AA0002078C04DC00749D06868C0F38100012894
:100AB00007D06868C0F38100022809D16868C003C4
:100AC00006D52868800339D560680028E7D035E06E
:100AD0006068B0F5803F0BD010B1B0F5A02F11D0F9
:100AE000286820F480302860286820F4802002E004
:100AF000286840F480302860606890B1FFF782FE7B
:100B000006460AE0286840F480202860F0E700BF2D
:100B1000FFF778FE801B642873D828688003F7D518
:100B20000CE0FFF76FFE064605E000BFFFF76AFE28
:100B3000801B6428F0D828688003F7D420789A4E68
:100B400080074FF001094FF0000839D5686810F0B0
:100B50000C0F07D06868C0F38100022809D16868CB
:100B6000C00306D42868800714D52069012808D15D
:100B700010E02069B0B1C6F80090FFF743FE0746C9
:100B800005E00AE1FFF73EFEC01B0228C4D8286832
:100B90008007F7D52868616920F0F80040EAC100B5
:100BA00028600DE0C6F80080FFF72CFE074604E041
:100BB000FFF728FEC01B022823D828688007F7D437
:100BC000207800072CD57948A169D9B1C0F80090E8
:100BD000FFF718FE074604E0FFF714FEC01B0228CB
:100BE0000FD8686A8007F7D571484FF4FA5100684A
:100BF000B0FBF1F0009000BF0098411E0091FAD2C6
:100C00000EE080E0C0F80080FFF7FCFD074604E03E
:100C1000FFF7F8FDC01B022875D8686A8007F7D473
:100C20002078400760D5E8690027C00008D4E8694B
:100C300040F08050E861E869012700F080500090A2
:100C40005C480168C90513D40168834641F480718A
:100C50000160FFF7D7FD824606E000BFFFF7D2FD37
:100C6000A0EB0A0064284ED8DBF80000C005F5D5DB
:100C7000E06801280AD008B1052813D0286A20F0BE
:100C800001002862286A20F0040002E0286A40F08F
:100C900001002862E06841F2883B98B1FFF7B2FD9D
:100CA00082460BE0286A40F004002862EEE700BFAD
:100CB000FFF7A8FDA0EB0A0159455AD8286A80071A
:100CC000F6D50CE0FFF79EFD824605E0FFF79AFDA2
:100CD000A0EB0A0159454CD8286A8007F6D41FB109
:100CE000E86920F08050E861E06988B36968C1F381
:100CF0008101022944D00228C6F8608004D0FFF7A1
:100D000081FD044638E034E0FFF77CFD074604E04F
:100D1000FFF778FDC01B02282BD828688001F7D484
:100D2000206AB0F5803F05D1E86AA16820F00F0085
:100D30000843E862D4E908010843696821F47411A2
:100D400008436860C6F86090FFF75CFD044606E063
:100D500025E000BFFFF756FD001B022809D82868D0
:100D60008001F7D51BE000BFFFF74CFD001B0228F8
:100D700002D90320BDE8F88F28688001F4D40EE082
:100D80000128F7D06868226A00F48031914204D1CA
:100D9000616A00F47010884201D00120EAE7002067
:100DA000E8E7000000100240000042428004424296
:100DB0000C0000200070004010B5401EB0F1807F94
:100DC00001D3012010BD4FF0E02460610F216017B6
:100DD00000F02FF90020A06107202061002010BD45
:100DE00070B590F83C20012A29D0012480F83C40BD
:100DF000022280F83D2003685A689D6822F0700640
:100E00000A6832435A600F4B02689A420BD0B2F123
:100E1000804F08D00C4B9A4205D00C4B9A4202D01E
:100E20000B4B9A4204D1496825F080031943916025
:100E300080F83D40002180F83C10084670BD02203B
:100E400070BD0000002C014000040040000800407C
:100E50000040014010B5040003D094F83D0010B1EB
:100E600007E0012010BD002084F83C00204600F07F
:100E70001FF8022084F83D00211D206800F08CF846
:100E8000012084F8460084F83E0084F83F0084F88E
:100E9000400084F8410084F8420084F8430084F85C
:100EA000440084F8450084F83D00002010BD000097
:100EB00008B500680649884208D10648C16941F072
:100EC0001001C161C06900F01000009008BD000071
:100ED000001000400010024090F83D10012901D0A0
:100EE00001207047022180F83D1000680C498842BB
:100EF0000BD0B0F1804F08D00A49884205D00A498A
:100F0000884202D00949884204D1816801F0070172
:100F1000062903D0016841F00101016000207047FB
:100F2000002C014000040040000800400040014047
:100F3000FEE7FEE7FEE770477047FFF769BC30B594
:100F40008FB028216846FFF759F914210AA8FFF746
:100F500055F90120009000040024CDE90104022588
:100F6000CDE90750800009906846FFF795FD08B16C
:100F700072B6FEE70F200A90CDE90B540D940021C4
:100F80000AA80E94FFF7D6FC002801D072B6FEE73F
:100F90000FB030BD70470000F0B502681E4B1F4C0B
:100FA0001F4D4FF0804E984205D0704503D0A042AF
:100FB00001D0A84203D122F070064A683243194E8C
:100FC000194FDFF868C098420BD0704509D0A04295
:100FD00007D0A84205D0B04203D0B84201D0604546
:100FE00003D122F44074CA6822434C6922F0800283
:100FF000224302608A68C2620A688262984205D00F
:10100000B04203D0B84201D0604501D10969016303
:1010100001214161F0BD0000002C014000040040AE
:1010200000080040004001400044014000480140E9
:10103000FEE70907090E002804DB00F1E02080F834
:101040000014704700F00F0000F1E02080F8141D3C
:10105000704700001CB5FFF7E3FBFFF770FF314856
:10106000816941F020018161816901F020010091D5
:10107000816941F004018161816901F004010091FD
:10108000416941F0010141614069002200F0010025
:10109000009011460D20FFF71BFC0D20FFF70AFC06
:1010A0000024224900942048019408600846FFF774
:1010B00051F908B172B6FEE70420CDE90004002220
:1010C00069461A48FFF723F908B172B6FEE71748D8
:1010D000009414301649019401601721C0E90114ED
:1010E00009218461C160FFF7B5FE08B172B6FEE761
:1010F0002020CDE900040D4869461430FFF770FE4A
:1011000008B172B6FEE709481430FFF7E5FE4FF468
:10111000206200210548FFF7DEF800210348FFF7B1
:101120007BF9FEE700100240007400401000002030
:101130000010004000000000000000000102030455
:1011400006070809641100080000002010000000D4
:101150005C01000874110008100000200007000066
:1011600078010008010000001000000000000000ED
:041170000024F40063
:0400000508000121CD
:00000001FF
