:020000040800F2
:1000000068060020BD010008C5010008C7010008FE
:10001000C9010008CB010008CD0100080000000064
:10002000000000000000000000000000CF010008F8
:10003000D101000800000000D3010008D50100082C
:10004000D7010008D7010008D7010008D701000830
:10005000D7010008D7010008D7010008D701000820
:10006000D7010008D7010008D7010008D701000810
:10007000D7010008D7010008D7010008D701000800
:10008000D7010008D7010008D701000800000000D0
:10009000000000000000000000000000D701000880
:1000A000D7010008D7010008D7010008D7010008D0
:1000B000D7010008D7010008D7010008D7010008C0
:1000C000D7010008D7010008D7010008D7010008B0
:1000D000D7010008D7010008D7010008D7010008A0
:1000E000D7010008D7010008D70100080000000070
:1000F0000000000000000000000000000000000000
:1001000000000000000000000000000000000000EF
:100110000000000000000000D7010008D70100081F
:1001200000F002F800F03AF80AA090E8000C8244CF
:100130008344AAF10107DA4501D100F02FF8AFF2AC
:10014000090EBAE80F0013F0010F18BFFB1A43F0B5
:100150000103184788070000A8070000103A24BFD1
:1001600078C878C1FAD8520724BF30C830C144BF1C
:1001700004680C607047000000230024002500265E
:10018000103A28BF78C1FBD8520728BF30C148BFFA
:100190000B6070471FB51FBD10B510BD00F031F8E2
:1001A0001146FFF7F7FF00F091FB00F04FF803B4A2
:1001B000FFF7F2FF03BC00F057F800000948804742
:1001C00009480047FEE7FEE7FEE7FEE7FEE7FEE739
:1001D000FEE7FEE7FEE7FEE704480549054A064B51
:1001E000704700007D07000821010008680000201A
:1001F00068060020680200206802002070477047EF
:100200007047754600F02CF8AE4605006946534627
:1002100020F00700854618B020B5FFF7DDFFBDE8E8
:1002200020404FF000064FF000074FF000084FF05D
:10023000000B21F00701AC46ACE8C009ACE8C009EE
:10024000ACE8C009ACE8C0098D46704710B504465B
:10025000AFF300802046BDE81040FFF7A8BF0000C4
:10026000004870470400002001491820ABBEFEE79B
:1002700026000200704721B1826842F001028260CC
:1002800003E0826822F001028260704721B1826837
:1002900042F48072826003E0826822F4807282609D
:1002A0007047000030B502460020002350680F4C14
:1002B00020400D790C6844EA052420435060906882
:1002C0000B4C2040D1E902542C434D7944EA4504BB
:1002D00020439060D06A20F470000C7C641EE4B26D
:1002E000234340EA0350D06230BD0000FFFEF0FF20
:1002F000FDF7F1FFF0B504460D4600200021092D61
:1003000011DDE068A5F10A0606EB4607072606FAA6
:1003100007F18843A5F10A0606EB460603FA06F143
:100320000843E0600CE0206905EB4507072606FA64
:1003300007F1884305EB450603FA06F108432061FF
:10034000072A0FDA606B561E06EB86071F2606FA91
:1003500007F18843561E06EB860605FA06F10843A8
:10036000606322E00D2A0FDA206BD61F06EB8607AA
:100370001F2606FA07F18843D61F06EB860605FA04
:1003800006F10843206310E0E06AA2F10D0606EBD7
:1003900086071F2606FA07F18843A2F10D0606EB31
:1003A000860605FA06F10843E062F0BD21B18268D5
:1003B00042F4A002826003E0826822F4A00282601C
:1003C000704721B1026842F00102026004E0026855
:1003D0004FF6FE731A4002607047000001684FF646
:1003E000FE72114001600021016041608160C160C6
:1003F0004B49884208D14A490839496841F00F0100
:10040000474A083A51608AE045491431884208D188
:1004100043490839496841F0F001414A083A5160BE
:100420007DE03F492831884208D13D490839496873
:1004300041F470613A4A083A516070E038493C3101
:10044000884208D136490839496841F47041344A34
:10045000083A516063E032495031884208D130494E
:100460000839496841F470212D4A083A516056E034
:100470002B496431884208D129490839496841F437
:100480007001274A083A516049E02549783188428D
:1004900008D123490839496841F07061204A083A77
:1004A00051603CE01F49884206D1011F096841F0B4
:1004B0000F01021F116032E01A491431884208D13D
:1004C0001849091F096841F0F001164A121F11600E
:1004D00025E014492831884208D11249091F0968CA
:1004E00041F470610F4A121F116018E00D493C3150
:1004F000884208D10B49091F096841F47041094A33
:10050000121F11600BE007495031884207D105499D
:10051000091F096841F47021024A121F11607047D7
:10052000080002400804024010B50022026847F6A5
:10053000F0739A430C6A8B6823430C6923434C691C
:1005400023438C692343CC6923434C6A23438C6A3D
:1005500023431A430260CB6843600B6883604B6897
:10056000C36010BD2DE9F0410246002500260020A1
:1005700000230024002791F803C00CF00F0591F828
:1005800003C00CF0100CBCF1000F03D091F802C0B6
:100590004CEA050591F800C0BCF1000F31D0146899
:1005A00000202BE04FF0010C0CFA00F3B1F800C072
:1005B0000CEA03069E4220D183004FF00F0C0CFA88
:1005C00003F7BC4305FA03FC4CEA040491F803C0AA
:1005D000BCF1280F06D14FF0010C0CFA00FCC2F858
:1005E00014C00AE091F803C0BCF1480F05D14FF0E8
:1005F000010C0CFA00FCC2F810C0401C0828D1D332
:100600001460B1F800C0BCF1FF0F34DD5468002065
:100610002EE000F1080C4FF0010808FA0CF3B1F8D5
:1006200000C00CEA03069E4221D183004FF00F0C5C
:100630000CFA03F7BC4305FA03FC4CEA040491F8F6
:1006400003C0BCF1280F05D100F1080C08FA0CF822
:10065000C2F8148091F803C0BCF1480F07D100F133
:10066000080C4FF0010808FA0CF8C2F81080401C82
:100670000828CED35460BDE8F081000029B1064AB5
:1006800052690243044B5A6104E0034A52698243AF
:10069000014B5A61704700000010024029B1064A20
:1006A00092690243044B9A6104E0034A92698243CF
:1006B000014B9A61704700000010024010B500F035
:1006C00001F810BD0CB50020019000902A48006888
:1006D00040F480302849086000BF2748006800F4D3
:1006E000003000900198401C0190009818B90198C2
:1006F000B0F5A06FF1D12048006800F4003010B1CF
:100700000120009001E0002000900098012831D1E4
:1007100019484068184948600846406848600846DB
:10072000406848600846406820F47C1048600846ED
:10073000406840F4981048600846006840F08070B7
:10074000086000BF0C48006800F000700028F9D075
:100750000948406820F0030007494860084640689F
:1007600040F00200486000BF0348406800F00C0001
:100770000828F9D10CBD00000010024010B5144843
:10078000006840F0010012490860084640681149BD
:1007900008400F494860084600680F4908400C4966
:1007A00008600846006820F4802008600846406819
:1007B00020F4FE0048604FF41F0088600020C862EB
:1007C000FFF77CFF4FF000600449086010BD000097
:1007D000001002400000FFF8FFFFF6FE08ED00E009
:1007E00000B585B001214802FFF758FF01208DF8C0
:1007F0000500002003904FF460200290002000903C
:1008000001208DF8100000208DF8040069460B4887
:10081000FFF748FD01210948FFF72DFD0121074899
:10082000FFF734FD0523012200210448FFF762FD94
:1008300001210248FFF7BAFD05B000BD00240140C8
:1008400000B58BB001210846FFF718FF00211348BF
:10085000FFF7B7FD1148FFF7C1FD0120039000200D
:1008600002900A900E4801904FF48060079080201B
:100870000590202008900B480090801506900020DD
:1008800004904FF40050099069460448FFF74CFE6D
:1008900001210248FFF795FD0BB000BD08000240A2
:1008A000000000204C24014008B501210420FFF77E
:1008B000F5FE00208DF803000120ADF80000694628
:1008C0000148FFF74FFE08BD00080140FFF7ECFFAD
:1008D000FFF786FFFFF7B4FF00BFFEE7FC08000844
:1008E00000000020040000005C010008000900086E
:1008F00004000020640600007801000800000000E9
:04000005080001BD31
:00000001FF
