:020000040800F2
:1000000070090020C5010008D31B00081F1B000851
:10001000D11B000825060008C91E000800000000CA
:10002000000000000000000000000000D71B0008D6
:10003000CF06000800000000D51B0008D91B0008EF
:10004000DF010008DF010008DF010008DF01000810
:10005000DF010008DF010008DF010008DF01000800
:10006000DF010008DF010008DF0100088D0600083D
:10007000DF01000899060008DF010008DF01000821
:10008000DF010008DF010008DF01000800000000B8
:10009000000000000000000000000000DF01000878
:1000A000DF010008DF010008DF010008DF010008B0
:1000B000DF010008DF010008DF010008DF010008A0
:1000C000DF010008DF010008DF010008DF01000890
:1000D000DF010008DF010008DF010008DF01000880
:1000E000DF010008DF010008DF0100080000000058
:1000F0000000000000000000000000000000000000
:1001000000000000000000000000000000000000EF
:100110000000000000000000DF010008DF0100080F
:1001200000F002F800F03FF80AA090E8000C8244CA
:100130008344AAF10107DA4501D100F034F8AFF2A7
:10014000090EBAE80F0013F0010F18BFFB1A43F0B5
:10015000010318476C3100008C310000103A24BFB5
:1001600078C878C1FAD8520724BF30C830C144BF1C
:1001700004680C607047000000230024002500265E
:10018000103A28BF78C1FBD8520728BF30C148BFFA
:100190000B607047642900F07D80002070471FB518
:1001A0001FBD10B510BD00F065F91146FFF7F7FF50
:1001B00002F002FA00F083F903B4FFF7F2FF03BC88
:1001C00000F086F90948804709480047FEE7FEE746
:1001D000FEE7FEE7FEE7FEE7FEE7FEE7FEE7FEE7F7
:1001E00004480549054A064B70470000431C0008B7
:1001F0002101000870030020700900207005002014
:10020000700500200FB41CB5074B06AA7B44694655
:100210000090059800F00DF90020694600F01CF9E7
:100220001CBC5DF814FB0000490200002DE9F04100
:100230000E460446002020622046E168884730B31D
:10024000252805D0D4E901219047206A401CF2E717
:10025000E168204600278847050018D0A5F1410035
:10026000192802D820354FF4006732462946204627
:100270002760FFF78FFF40B1012804D0F61D26F05C
:1002800007060836D8E7361DD6E72846DAE7206A9B
:10029000BDE8F0812DE9F04106460024106875297B
:1002A000314616A510D0AFF30080002802DA404294
:1002B00013A507E031688A0701D512A502E04907B6
:1002C00004D511A5012401E0AFF3008000210A222A
:1002D00006F1240709E0B0FBF2FCB0FBF2F302FBED
:1002E0001C00303078541846491C0028F3D12346AE
:1002F0002A463046BDE8F04100F03DB8000000005D
:100300002D0000002B000000200000004FF0000234
:1003100000B5134694469646203922BFA0E80C50FB
:10032000A0E80C50B1F12001BFF4F7AF090728BFD6
:10033000A0E80C5048BF0CC05DF804EB890028BF52
:1003400040F8042B08BF704748BF20F8022B11F07B
:10035000804F18BF00F8012B7047704770477047F7
:1003600010B500F07FF8006810BD10B5044600F02D
:1003700079F8046010BD2DE9F0470D469946924684
:10038000044600F124080168880604D5E06921F0DC
:100390001001216000E00120A84201DD471B00E0C0
:1003A0000027A1697A1902EB0900081AA0612078D8
:1003B000C00602D42046AFF30080002608E0D4E94E
:1003C00001211AF806009047206A401C761C206222
:1003D0004E45F4DB2078C0060AD52046AFF30080F6
:1003E00006E0D4E9012130209047206A401C2062B9
:1003F000381EA7F10107F4DC07E0D4E9012118F861
:1004000005009047206A401C2062281EA5F10105C6
:10041000F3DC2046AFF300802078000602D50220EE
:10042000BDE8F0870120FBE701694A1C02610878FA
:10043000704700B58FB0CDE9013100210591054924
:100440007944CDE9031011466846FFF7EFFE0FB07F
:1004500000BD0000E5FFFFFF0A6802F8010B0A601B
:1004600070470000004870470C03002000487047A8
:100470000C0300207546FFF7F9FFAE4605006946FC
:10048000534620F00700854618B020B5FFF7A8FEB8
:10049000BDE820404FF000064FF000074FF0000885
:1004A0004FF0000B21F00701AC46ACE8C009ACE806
:1004B000C009ACE8C009ACE8C0098D46704710B56A
:1004C0000446AFF300802046BDE81040FFF774BE3D
:1004D00001491820ABBEFEE726000200704700006D
:1004E00070B5044600688168C943C90717D181689F
:1004F00021F00101816000F0C1FD05460AE000BF66
:1005000000F0BCFD401B022804D920688068C0436D
:10051000C00706D020688068C043C007F0D0002024
:1005200070BDA06A40F01000A062E06A40F00100D7
:10053000E062012070BD10B50146406A826A12F087
:10054000500F05D0006A026BBDE810400846104706
:10055000816A41F40071816201688968C1F3424196
:1005600007290CD1017B51B9816A21F48071816224
:10057000816AC90403D4816A41F00101816200F0FB
:1005800027F910BD10B5406A816A41F040018162CF
:10059000C16A41F00401C16200F01CF910BD10B540
:1005A000406A00F016F910BDF8B500260446009622
:1005B00000688168C943C9072DD0816841F00101F5
:1005C0008160164816490068B0FBF1F000E0401E5B
:1005D00000900028FBD100F051FD054616E000BF59
:1005E00000F04CFD401B022810D920688068C043F1
:1005F000C0070BD0A06A40F01000A062E06A40F093
:100600000100E06284F824600120F8BD2068806861
:10061000C043C007E4D10020F8BD00001400002052
:1006200040420F00FEE710B5446A204600F038FA59
:100630000120207110BD10B5446A204600F00AFA6E
:100640000120207110BD10B5446A206940F00400FB
:100650002061204600F026FA0120207110BD10B55F
:10066000446A206940F004002061204600F0F4F95B
:100670000120207110BD10B5406A00F012FA10BDC3
:1006800010B5406A00F0E7F910BD0000014800F025
:10069000F5BA000084020020014800F0EFBA000023
:1006A000C802002030B590F840500124AC40C56B22
:1006B0006C60046863604368102B036803D0996022
:1006C0000068C26030BD9A600068C16030BD70478C
:1006D00072B6FEE7F8B50024009490F82420254671
:1006E000012A12D0012280F824204A681F23072AF9
:1006F0000DD20668776B521E02EB820293409F4335
:100700000B6893401F43776319E00220F8BD066829
:100710000D2A0AD2376BD21F02EB820293409F430D
:100720000B6893401F43376309E0F76A0D3A02EB09
:10073000820293409F430B6893401F43F7620A680D
:10074000072306680A2A0AD3F7680A3A02EB42022C
:1007500093409F438B6893401F43F76008E03769DD
:1007600002EB420293409F438B6893401F433761E3
:100770000A68102A01D0112A20D1124B02689A422D
:1007800017D193681B0219D4936843F40003936054
:100790000968102912D10C490C4A0968B1FBF2F121
:1007A00001EB8101490000E0491E00910029FBD1C5
:1007B00004E0816A41F020018162012480F8245024
:1007C0002046F8BD002401401400002040420F00E4
:1007D00070477047704700002DE9F0414FF0000767
:1007E00004003D467ED0A06A002628B9E66284F85F
:1007F0002460204600F07EF82046FFF771FEA16AD3
:10080000C90600D420B1A06A40F01000A06269E0DF
:10081000A16A21F4885141F00201A1626268E16994
:10082000237B0A4347EA43010A43A1684FF48077D8
:10083000B94209D0012907D05FF0000194F814C033
:10084000BCF1010F02D00AE03946F7E7F3B1A36A21
:1008500043F02003A362E36A43F00103E3622368E9
:10086000D3F804C02CF4694C4CEA010CC3F804C062
:1008700021688B68DFF870C003EA0C0313438B60B8
:10088000A168B9420BD0012909D00CE0DFF85CC0A7
:10089000A3690CEB43330B4343F40061DFE7218A88
:1008A0000D05A5F580152168CB6A23F470032B4351
:1008B000CB62216889680E4B1940914208D1E662EB
:1008C000A16A21F0020141F00101A162BDE8F081BD
:1008D000A06A20F0020040F01000A062E06A40F040
:1008E0000100E0620120F1E7FDF7E1FF00E0FFFF1A
:1008F000FE0E1FFF70B586B00025064600950195D7
:100900000295039500681A4988422ED119498869D1
:1009100040F400708861886900F400700490886970
:1009200040F0040088618869694600F00400049082
:1009300002200090032001900F4800F0AFFA104C05
:100940000E48C4E900058020C4E9025080002061FF
:10095000800060612020C4E90605204600F038FAD6
:1009600008B1FFF7B5FE3462666206B070BD0000E4
:10097000002401400010024000080140080002402D
:10098000840200202DE9F041044690F82400164628
:100990000F4601280ED0012084F824002046FFF7DE
:1009A00003FE05004FF0000006D084F8240028461E
:1009B000BDE8F0810220FBE7A16A40F601629143A5
:1009C00041F48071A162A16A21F48011A1622168C1
:1009D0004968490505D5A16A21F4005141F48051C7
:1009E000A162A16AC90404D5E16A21F00601E162AD
:1009F00000E0E06284F82400216A13488862216ADA
:100A00001248C862216A1248086321686FF0020028
:100A100008602068816841F48071816021683346F4
:100A20003A464C31206A00F001FA20688168C1F32F
:100A300042410729816803D041F480118160B6E703
:100A400041F4A001FAE70000370500089F050008FF
:100A50008505000870477047704770B54379012BD2
:100A60001CD0012646710223037105682B6802F031
:100A7000100440F6FE72A2409343D1E900210A43DC
:100A8000A2401A432A6001680A68C023A3409A431F
:100A90000A60067100214171084670BD022070BDD8
:100AA00070477047704770B5040003D02079002567
:100AB00010B105E0012070BD6571204600F008F816
:100AC00002202071256101202071002070BD0000EE
:100AD000F0B585B00026054600960196029603966D
:100AE00000681C49884233D11B49C86940F0005056
:100AF000C861C86900F000500490886940F00400A3
:100B000088618869102700F0040004900320CDE973
:100B100000706946114800F0C1F9124C1048C4E950
:100B200000078020C4E902608000206180006061CD
:100B30002020C4E90606204600F04AF908B1FFF774
:100B4000C7FD0948C16941F40061C161AC606562DB
:100B500005B0F0BD007400400010024000080140E4
:100B600030000240C8020020000001402DE9F041A1
:100B700004460D461746617900220698012920D0C7
:100B80000126667102212171F5B1D4F80CC03549F6
:100B9000CCF82810D4F80CC03349CCF82C10D4F879
:100BA0000CC03249CCF830102168D1F800C04CF0AC
:100BB000805CC1F800C090B3042834D0082837D135
:100BC00034E00220BDE8F081D4F808C02849CCF810
:100BD0002810D4F808C02749CCF82C10D4F808C045
:100BE0002549CCF830102168D1F800C04CF4805C65
:100BF000C1F800C020B1042805D0082808D105E0BC
:100C00002268083204E022680C3201E022681032C7
:100C10002068016841F400510160A0680EE0FFE720
:100C20002268143204E02268183201E022681C3283
:100C30002068016841F000510160E068394600F029
:100C4000F5F80021617120B1216941F004012161B1
:100C5000B8E721680A6805F010039E4032430A6035
:100C6000B0E7000037060008810600085F060008AC
:100C70002706000877060008470600082DE9F05F00
:100C8000C16B0C6801680B68D0F840C0042202FAFE
:100C90000CF2494DDFF824A1494E4A4FDFF828B144
:100CA000DFF828E122422CD05A072AD50A6892069A
:100CB00003D40A6822F004020A600168A94201D143
:100CC000042219E0514501D1402215E0B14202D180
:100CD0004FF4806210E0B94202D14FF480420BE041
:100CE000594502D14FF4802206E0714502D14FF4FC
:100CF000800201E04FF080622F4908394A60C16AE2
:100D00003BE04FF0020808FA0CF818EA040F4FF025
:100D100000094FF0010235D05FEA837832D50B68C5
:100D20009B0605D40B6823F00A030B6080F8212092
:100D30000168A94201D1022219E0514501D12022C6
:100D400015E0B14202D14FF4007210E0B94202D175
:100D50004FF400520BE0594502D14FF4003206E047
:100D6000714502D14FF4001201E04FF000721249B8
:100D700008394A6080F82090816A00291AD0BDE8BD
:100D8000F05F0847082505FA0CF5254212D01B072D
:100D900010D50B6823F00E030B6090F84010C36B66
:100DA00002FA01F15960826380F8212080F82090D6
:100DB000016BE2E7BDE8F09F080002401C00024022
:100DC0003000024044000240580002406C000240E3
:100DD00030B528B308C8134914221944B1FBF2F105
:100DE0008900C16310498163022141771A6843F683
:100DF000F0718A43D0E900142143D0E902452C4325
:100E000021430469214344692143846921431143F7
:100E1000196000214163012242770177084630BD05
:100E2000012030BDF8FFFDBF0000024070B5044650
:100E300090F82000002501280CD0012084F8200023
:100E400094F821600020012E06D084F820000225AD
:100E5000284670BD022070BD022684F82160A06380
:100E60002068066826F0010606602046FFF71AFC97
:100E7000E06A00282068016802D041F00E0106E017
:100E800021F0040101602068016841F00A0101605D
:100E90002068016841F001010160D9E72DE9F84FB0
:100EA000DFF8B891002409F1040A0AF1040B234683
:100EB0000F270BF1040EC9E00125A5402A40AA42E4
:100EC0007DD1674ED1F804C0ACEB0608B44532D0F2
:100ED00014DCBCF1030F3AD009DCBCF1000F2AD0BE
:100EE000BCF1010F1CD0BCF1020F31D11DE0BCF1EF
:100EF000110F17D0BCF1120F2AD119E0B8F5881FD5
:100F000019D006DCB8F5803F15D0B8F5801F1FD189
:100F100011E0B8F5001F0ED0B8F5041F18D10AE093
:100F2000CB6815E0CB681B1D12E0CB6808330FE0DF
:100F3000CB680C330CE08B682BB1012B4FF008030E
:100F400003D0456104E0042302E0056100E00023D2
:100F5000FF2A01D8064601E000F104064FEA8405A5
:100F600001D9A5F12005D6F8008007FA05FC28EA8A
:100F70000C0803FA05F548EA0508C6F800804D6834
:100F8000ED0062D5374DAE6946F00106AE61AD6940
:100F900024F0030605F001050095334D06EB050C22
:100FA000DCF80850A607360F07FA06F825EA080508
:100FB000DFF8B880404503D14FF0000817E044E067
:100FC000DFF8AC80404502D14FF001080FE0DFF8B8
:100FD000A480404502D14FF0020808E0DFF8988075
:100FE000404502D14FF0030801E04FF0040808FA31
:100FF00006F848EA0508CCF808804D68D9F8006082
:10100000ED034D4601D5164300E096432E604D6832
:10101000DAF80060AD03554601D5164300E096436B
:101020002E604D68DBF80060ED025D4601D5164389
:1010300000E096432E604D68DEF80060AD02754614
:1010400001D5164300E096432E60641C0D682A46C5
:10105000E5407FF431AFBDE8F88F000000040140A7
:101060000000111000100240000001400008014083
:10107000000C01400010014000140140014880684C
:10108000704700000800002002488168027811447F
:10109000816070470800002010B5032000F074F84C
:1010A0000F2000F005F800F023F8002010BD00002C
:1010B00070B50D4D04464FF47A712878B1FBF0F00D
:1010C0000A490968B1FBF0F000F040FB48B9102C68
:1010D00007D200222146501E00F036F800206C6036
:1010E00070BD012070BD0000080000201400002029
:1010F0000C4808B5816941F001018161816901F005
:1011000001010091C16941F08051C161C06900F0E5
:10111000805000900448416821F0E06141F0007186
:10112000416008BD0010024000000140002809DBBA
:1011300000F01F02012191404009800000F1E020F1
:10114000C0F8001170470000F0B40E4B1B680C464D
:10115000C3F30223C3F10705042D00D90425191D8B
:10116000072901D2002300E0DB1E012606FA05F163
:10117000491E214099409E40761E16403143F0BCE6
:1011800000F0B7BE0CED00E0064900F00702086869
:101190004FF6FF03184040EA0220034A104308605C
:1011A000704700000CED00E00000FA052DE9F8435F
:1011B00005460078314CC00754D0E0690026C000D5
:1011C00008D4E06940F08050E061E069012600F059
:1011D000805000902A480168C90512D401688046F1
:1011E00041F480710160FFF749FF074605E000BF49
:1011F000FFF744FFC01B642823D8D8F80000C005BF
:10120000F6D5206A10F4407021D0A98801F440710D
:1012100081421CD0206A1B49012220F440700A60E0
:1012200000220A602062C00711D0FFF727FF07469F
:1012300041F2883808E000BFFFF720FFC11B41459D
:1012400002D90320BDE8F883206A8007F4D5206A1C
:10125000696820F44070084320621EB1E06920F004
:101260008050E0612878800705D56068A96820F47F
:101270004040084360600020E4E7000000100240A6
:1012800000700040400442422DE9F041050027D0A3
:101290002868334C810712D5400703D5606840F4B5
:1012A000E06060602878000703D5606840F4605013
:1012B00060606068A96820F0F000084360602878EA
:1012C000C00729D06868012804D02168022804D00A
:1012D000890703E02168890300E08901002902DB16
:1012E0000120BDE8F081616821F0030101436160E4
:1012F000FFF7C4FE064641F2883706E0FFF7BEFE60
:10130000801BB84201D90320EBE76068696800F0F0
:101310000C00B0EB810FF1D12878400705D560684B
:10132000E96820F4E060084360602878000706D58B
:101330006068296920F4605040EAC100606000F0F4
:1013400037F86168074AC1F30311515CC840064988
:10135000086006480068FFF7ABFE0020C1E7000008
:101360000010024084310008140000200C0000200E
:101370000448054900684968044AC1F30221515CE8
:10138000C84070471400002000100240943100084B
:101390000448054900684968044AC1F3C221515C08
:1013A000C84070471400002000100240943100082B
:1013B00013A188B00FC98DE80F0015A10DF1100C15
:1013C0000FC98CE80F00164A5168164801F00C034B
:1013D000042B10D0082B0ED1C1F38343C9031DF891
:1013E00003000AD5D16A04AA01F00F01515C0D4A2D
:1013F0005043B0FBF1F008B070470B494843FAE79F
:1014000002030405060708090A0B0C0D0E0F101045
:101410000102030405060708090A0B0C0D0E0F1044
:101420000010024000127A0000093D002DE9F84F3B
:10143000040070D02078C04DC00749D06868C0F360
:101440008100012807D06868C0F38100022809D113
:101450006868C00306D52868800339D5606800280D
:10146000E7D035E06068B0F5803F0BD010B1B0F543
:10147000A02F11D0286820F480302860286820F43C
:10148000802002E0286840F480302860606890B1D5
:10149000FFF7F4FD06460AE0286840F48020286043
:1014A000F0E700BFFFF7EAFD801B642873D82868C7
:1014B0008003F7D50CE0FFF7E1FD064605E000BF2D
:1014C000FFF7DCFD801B6428F0D828688003F7D480
:1014D00020789A4E80074FF001094FF0000839D567
:1014E000686810F00C0F07D06868C0F3810002280C
:1014F00009D16868C00306D42868800714D520691C
:10150000012808D110E02069B0B1C6F80090FFF7BB
:10151000B5FD074605E00AE1FFF7B0FDC01B022854
:10152000C4D828688007F7D52868616920F0F800DA
:1015300040EAC10028600DE0C6F80080FFF79EFD7C
:10154000074604E0FFF79AFDC01B022823D828684D
:101550008007F7D4207800072CD57948A169D9B144
:10156000C0F80090FFF78AFD074604E0FFF786FD0C
:10157000C01B02280FD8686A8007F7D571484FF45E
:10158000FA510068B0FBF1F0009000BF0098411ED6
:101590000091FAD20EE080E0C0F80080FFF76EFD07
:1015A000074604E0FFF76AFDC01B022875D8686A89
:1015B0008007F7D42078400760D5E8690027C0008D
:1015C00008D4E86940F08050E861E869012700F03C
:1015D000805000905C480168C90513D401688346B7
:1015E00041F480710160FFF749FD824606E000BFCB
:1015F000FFF744FDA0EB0A0064284ED8DBF800009A
:10160000C005F5D5E06801280AD008B1052813D037
:10161000286A20F001002862286A20F0040002E015
:10162000286A40F001002862E06841F2883B98B1E6
:10163000FFF724FD82460BE0286A40F00400286290
:10164000EEE700BFFFF71AFDA0EB0A0159455AD893
:10165000286A8007F6D50CE0FFF710FD824605E00A
:10166000FFF70CFDA0EB0A0159454CD8286A80070A
:10167000F6D41FB1E86920F08050E861E06988B3D2
:101680006968C1F38101022944D00228C6F860804C
:1016900004D0FFF7F3FC044638E034E0FFF7EEFC3B
:1016A000074604E0FFF7EAFCC01B02282BD8286895
:1016B0008001F7D4206AB0F5803F05D1E86AA168BF
:1016C00020F00F000843E862D4E908010843696884
:1016D00021F4741108436860C6F86090FFF7CEFCEF
:1016E000044606E025E000BFFFF7C8FC001B022807
:1016F00009D828688001F7D51BE000BFFFF7BEFCC2
:10170000001B022802D90320BDE8F88F2868800159
:10171000F4D40EE00128F7D06868226A00F4803122
:10172000914204D1616A00F47010884201D0012016
:10173000EAE70020E8E70000001002400000424213
:1017400080044242140000200070004010B5401E8A
:10175000B0F1807F01D3012010BD4FF0E024606123
:101760000F21601700F0C5FB0020A0610720206159
:10177000002010BD70B590F83C20012A29D001242A
:1017800080F83C40022280F83D2003685A689D683A
:1017900022F070060A6832435A600F4B02689A4280
:1017A0000BD0B2F1804F08D00C4B9A4205D00C4BB5
:1017B0009A4202D00B4B9A4204D1496825F080032B
:1017C0001943916080F83D40002180F83C100846A4
:1017D00070BD022070BD0000002C014000040040DC
:1017E000000800400040014010B5040003D094F808
:1017F0003D0010B107E0012010BD002084F83C003E
:10180000204600F01FF8022084F83D00211D2068CA
:1018100000F018FA012084F8460084F83E0084F8AD
:101820003F0084F8400084F8410084F8420084F8C6
:10183000430084F8440084F8450084F83D0000200B
:1018400010BD000008B500680649884208D1064866
:10185000C16941F00201C161C06900F0020000905D
:1018600008BD0000000400400010024090F83D1048
:10187000012901D001207047022180F83D10006845
:101880000C4988420BD0B0F1804F08D00A498842F9
:1018900005D00A49884202D00949884204D18168AA
:1018A00001F00701062903D0016841F00101016040
:1018B00000207047002C0140000400400008004058
:1018C0000040014070B5044690F83C00012817D054
:1018D000012584F83C50022084F83D00206882688D
:1018E00022F0770222F47F4282600868502830D0CC
:1018F0000DDC20284DD005DC98B310283BD148E002
:10190000022070BD302844D0402834D139E060280E
:1019100028D0702806D0B0F5805F2CD0B0F5005FDD
:1019200029D10AE0CB68D1E90121206800F0D6F97D
:101930002068816841F0770109E0CB68D1E9012195
:10194000206800F0CBF92068816841F48041816013
:1019500011E0CA684968206800F0D2F95021206877
:1019600007E016E0CA684968206800F0DAF96021EB
:10197000206800F0BDF984F83D50002084F83C0058
:1019800070BDCA684968206800F0BAF94021206833
:10199000EFE7226801461046EBE770B5040004D07B
:1019A00094F83D00002510B106E0012070BD84F8D8
:1019B0003C50204600F022F8242084F83D002068A6
:1019C000C16821F40051C160204600F0BDF92068D3
:1019D000016921F4904101612068416921F02A01E7
:1019E00041612068C16841F40051C1602564202034
:1019F00084F83D0084F83E00002070BD30B585B00D
:101A000000240094019402940394006814498842CD
:101A100024D11448816941F480418161816901F4D4
:101A200080410491816941F00401816180690E4D1A
:101A300000F0040004904FF4007000900220019028
:101A40000320039069462846FFF728FA2815CDE9B8
:101A50000004694628460294FFF720FA05B030BD1D
:101A60000038014000100240000801402DE9F84311
:101A7000044690F83D001F4616460D4620284CD1DE
:101A8000C5B1BEB194F83C00012846D0012084F8CD
:101A90003C004FF00008C4F84080212084F83D004D
:101AA000FFF7ECFAA6848146E684A068B0F5805F73
:101AB00003D004E00120BDE8F883206928B12E4658
:101AC0005FF0000584F83C800EE00026FAE78021F4
:101AD000204600F0C7F9A0B9AEB116F8010B216895
:101AE0004860E08C401EE084E08C4B464FF00002E2
:101AF00000970028EBD14FF04001204600F0B2F9EA
:101B000030B10320D7E735F8020BC0F30800E6E751
:101B1000202084F83D000020CDE70220CBE7FEE73F
:101B20003EB5002410480094019402940D4984604D
:101B3000016001250573047505614FF4602144605F
:101B4000C161FEF749FE08B172B6FEE70095CDE926
:101B5000015469460448FEF7BDFD002801D072B665
:101B6000FEE73EBD002401401800002010B586B0FD
:101B7000002416480094019402940394049412499A
:101B80000594C0E900144F21C0E902410461846159
:101B9000FFF72AFE08B172B6FEE74FF480500090BE
:101BA00069460A48FFF78EFE08B172B6FEE72020AC
:101BB000CDE9040404A90548FFF7DCFD002801D0A5
:101BC00072B6FEE706B010BD000400405C000020C5
:101BD000FEE7FEE770477047FFF756BA30B593B09F
:101BE00028216846FEF792FB14210AA8FEF78EFB17
:101BF000002401200F9402250490009510201194D8
:101C00000590109407946846FFF710FC08B172B66F
:101C1000FEE70F20CDE90A040C940D9400210AA8D8
:101C20000E94FFF731FB08B172B6FEE70FA80F95CF
:101C30001194FFF7BBFA002801D072B6FEE713B08B
:101C400030BD7047F0B502681E4B1F4C1F4D4FF062
:101C5000804E984205D0704503D0A04201D0A842E2
:101C600003D122F070064A683243194E194FDFF84B
:101C700068C098420BD0704509D0A04207D0A84256
:101C800005D0B04203D0B84201D0604503D122F460
:101C90004074CA6822434C6922F0800222430260E9
:101CA0008A68C2620A688262984205D0B04203D054
:101CB000B84201D0604501D1096901630121416148
:101CC000F0BD0000002C014000040040000800406E
:101CD00000400140004401400048014010B58468C4
:101CE00042EA032224F47F440A432243826010BD67
:101CF000826822F070020A4342F007018160704757
:101D000010B5036A046A24F001040462846924F0B3
:101D1000F00444EA021423F00A020A4384610262D6
:101D200010BD10B5036A23F0100303628369046ACF
:101D300023F4704343EA023224F0A00343EA011182
:101D40008261016210BD00002DE9F0410446006887
:101D50000169E26821F44051114301612169A068E1
:101D6000E26908436169114322680843D16849F276
:101D70000C6399430143D16020684169A26921F451
:101D800040711143416136492068884202D1FFF712
:101D9000FFFA01E0FFF7ECFA0246E3696420322122
:101DA000B3F5004F02EBC20303EB021362682BD0C2
:101DB0009200B3FBF2F5B5FBF0F5B3FBF2F66FF072
:101DC00018077D4306EB8505B3FBF2F601EB05151D
:101DD000B5FBF0F5B6FBF0F605F0F00505EB0615E2
:101DE000B3FBF2F6B3FBF2F2B2FBF0F27A4306EB8E
:101DF000820201EB0211B1FBF0F000F00F0021684C
:101E000028448860BDE8F0815200B3FBF2F6B6FBCF
:101E1000F0F6B3FBF2F7B3FBF2F56FF0180C06FB2C
:101E20000CF607EB860601EBC606B5FBF0F5B6FB34
:101E3000F0F62D0106F0F80605EB4605B3FBF2F6C9
:101E4000B3FBF2F2B2FBF0F202FB0CF206EB820201
:101E500001EBC201B1FBF0F000F00700CFE700009A
:101E6000003801402DE9F041984617460E460446D9
:101E7000069D1DE0681C1BD02DB1FFF7FFF8A0EBFD
:101E80000800A84214D92068C16821F4D071C1604B
:101E90002068416921F001014161202084F83D0062
:101EA00084F83E00002084F83C000320BDE8F08167
:101EB0002068006836EA000004D00020B842D9D07B
:101EC0000020F3E70120F9E7FEE7490050EAC120CE
:101ED00018BF04204A0D18BF40F0010040F2FF7205
:101EE000B2EB515F08BF40F00200012808BF052097
:101EF00070470907090E002804DB00F1E02080F894
:101F00000014704700F00F0000F1E02080F8141D6D
:101F1000704700002DE9F74F144694B00021C4E942
:101F200002111599079121F00045C9498D4206DC3F
:101F30001599C4E9000117B00020BDE8F08FC5492C
:101F4000DFF814A3A9423CDD0799C44E0029C44F11
:101F5000C44A1599534619DD00F0B2FF554506D025
:101F6000C14AC24B00F0ACFFC4E900010AE04FF0E7
:101F7000D352BE4B00F0A4FF32463B4600F0A0FF18
:101F8000C4E9000117B00120BDE8F08F00F0FEFBAE
:101F9000554506D0B44AB54B00F0F8FBC4E9000142
:101FA0000AE04FF0D352B14B00F0F0FB32463B4613
:101FB00000F0ECFBC4E9000117B04FF0FF30BDE8C2
:101FC000F08FAB49A942159978DB21F00041834697
:101FD0008846A84AA84B00F069FE0022A74B00F0F3
:101FE000D5FB00F0DBFD099000F035FE06460F46FC
:101FF0009C4A534600F05AFE43465A4600F054FFAE
:1020000080468A46984A994B3046394600F04EFE43
:102010002A0D01250B924246534600F045FF032D41
:10202000C4E9000139D00B98C1F30A51401A05EBFD
:1020300045111139814230DA9148C346784400EBAA
:102040000510CDF80CA00C90D0E90023304639469D
:1020500000F02CFE02460B46049106905846039968
:1020600000F02EFF80468A4602460B4658460399EA
:1020700000F026FF049B069A00F022FF83460C988E
:1020800003913946D0E90223304600F00FFE5A464C
:10209000039B00F015FF6D1CBDE707980028A2BF49
:1020A000099817B0BDE8F08F616881F00041616068
:1020B000099817B04042BDE8F08FFFE784461598B5
:1020C000C1F31301C0F30A50A0F2F5304FEA6018D3
:1020D00000F01F06C6F12000139000200690079024
:1020E00041F4801E05206D4676B1664A08EB00017A
:1020F0007A4452F8213002EB8101B3404A681399C7
:1021000022FA01F1194305E05F4908EB0002794426
:1021100051F82210A1FB0E27A1FB0C131A449A427E
:1021200034BF0123002303EB070A05EB8003D3E947
:1021300001B70F448F4234BF0121002193448B44E7
:1021400011B1934502D903E0934501D2012100E08A
:102150000021C3E901B7514445F82010011EA0F148
:102160000100C1DC0298059F00F10050800F129021
:102170000298DDE90356800000F06DFD8346284695
:102180000D9100F07FFD6FF01D0200F0B5FFCDE96D
:102190000E01304600F076FD6FF03D0200F0ACFF1E
:1021A00080468A46384600F06DFD6FF05D0200F013
:1021B000A3FF074642465346119100F0E7FADDE9D6
:1021C0000E2300F0E3FA5A460D9B00F0DFFA0025DB
:1021D0000E465A4628460D9B00F072FEDDE90E239E
:1021E00000F06EFE4246534600F06AFE3A46119BEE
:1021F00000F05AFEDFF898A0244A534600F056FD3E
:1022000007468846234A244B3146284600F04EFDB7
:102210003A46434600F0BAFA074688464FF0A842CD
:1022200053463146284600F041FD3A46434600F009
:10223000ADFA159A12F0004F04D0129A81F00041C5
:1022400052421292C4E90001129817B0BDE8F08F13
:10225000FB21E93F7CD90240FB21F93F7370032E3B
:102260008A19A33B000040543163621A61B4D03D27
:10227000FB21394183C8C96D305FE43F0000E03F76
:10228000901100000C110000EE100000182D4454B5
:10229000FB21F93D3326A611460B113C2DE9FF4DDC
:1022A00021F0004807460C46B8F1795F08DA00F0E3
:1022B00075FC002801BF0020324904B0BDE8F08D54
:1022C0003A4623461046194600F0F0FC0546024601
:1022D0002D480E460B460621784400F05DF82A464C
:1022E000334600F0E3FCDDE9022382468B463846A4
:1022F000214600F0DBFC04460F4652465B4628466A
:10230000314600F0D3FC22463B4600F0D9FD07469B
:102310008A464FF0FF322846314600F0EDFE1B4A58
:1023200090450ADA3A46534600F0CAFD04B000224E
:10233000BDE8F04D134B00F0B7BD154A4245A8BFAC
:10234000A8F500154FF00004B8BF124D22462B46E9
:1023500000F0B6FD0646884622462B460020094975
:1023600000F0AEFD04460D463A465346304641461F
:1023700000F0A6FD04B022462B46BDE8F04D00F06B
:1023800093BD00000000F03FC40E00003333D33F84
:102390000000E93F0000D23F2DE9F0414F1E00EB65
:1023A000C7010446D1E9000115461E4637F0060272
:1023B0000DD02A46334600F079FC7F1E04EBC7039C
:1023C000D3E9002300F0E2F937F00602F1D1022F41
:1023D00025D0042F13D0062F18BFBDE8F0812A4660
:1023E000334600F063FCD4E90A2300F0CFF92A4613
:1023F000334600F05BFCD4E9082300F0C7F92A4615
:10240000334600F053FCD4E9062300F0BFF92A4616
:10241000334600F04BFCD4E9042300F0B7F92A4618
:10242000334600F043FCD4E9022300F0AFF92A461A
:10243000334600F03BFCD4E90023BDE8F04100F056
:10244000A5B900002DE9FF4D054621F0004084B0FC
:102450000C46B0F1795F0BDA2846FFF736FD042809
:1024600008BF00F06FF8284608B02146BDE8F08D9F
:102470002A460B46104600F019FC06460F462A462F
:10248000234600F013FC804626488A4632463B46E7
:1024900005217844FFF780FF83461098029160B3CE
:1024A000214A224B4046514600F000FCCDE9000194
:1024B0005A4640465146029B00F0F8FB8246884649
:1024C000DDE906014FF0FF3200F016FE52464346AA
:1024D00000F0F6FC32463B4600F0E8FBDDE906235F
:1024E00000F0EEFCDDE9002300F0EAFC08B02A462B
:1024F0002346BDE8F04D00F0D7BC0B465A463046A7
:10250000394600F0D3FB084A084B00F03FF9424639
:10251000534600F0CBFB08B02A462346BDE8F04DF9
:1025200000F034B9020E0000495555555555C5BF48
:10253000012200F0E1BD002213461046114600F0D2
:10254000D5B90000024A0020110700F0D5BD0000F7
:1025500001FDFFFF2DE9F047124E134FDFF84C80CD
:10256000DFF84C90134D0024600000F074FB3246FD
:102570003B4600F09BFB0022434600F0B7F900F019
:10258000B5F800224B4600F001F90B2200F0B4FD33
:1025900000F034FB45F82400641C642CE4DBBDE847
:1025A000F08700004AD8124DFB2109400000594035
:1025B0000000F03FE80000201CB5FEF76DFDFFF7BE
:1025C0000DFB4248816941F020018161816901F080
:1025D00020010091816941F004018161816901F06C
:1025E00004010091416941F001014161406900220B
:1025F00000F00100009011460B20FEF7A5FD0B2016
:10260000FEF794FD002211460D20FEF79DFD0D20E2
:10261000FEF78CFD00242F4900942D48019408609A
:102620000846FEF740FA08B172B6FEE70C25CDE980
:102630000054002269462748FEF70FFA08B172B627
:10264000FEE7FFF76DFAFFF791FA224822495C3066
:1026500001604FF4E131C0E90114C460C0E90445F0
:102660008461C461FFF799F908B172B6FEE71948B1
:102670001430FFF7FBF8FFF76DFF164A6423A03212
:10268000002114480094FEF771FA124804221349FD
:102690003038FEF777F9114E4FF0FF37351F2868B5
:1026A0000128FCD10EA110483268FDF7ABFD0E49A0
:1026B0003B460A22A1F5EA70FFF7D8F90548042243
:1026C000064930382C60FEF75DF9E8E7001002405B
:1026D0000074004048000020003801400400002041
:1026E0002564200D0A0000007802002000B5254B6B
:1026F00021F0004287B09A4203DC00221346009288
:102700002BE0214B9A4208D140B94FF00100FDF770
:102710002CFEFFF710FF07B000BD03DBFFF708FF3B
:1027200007B000BD02AAFFF7F5FB10F003014FF060
:1027300001000DD0012914D002291AD00DF1080C86
:102740009CE80F00FFF7AAFD07B081F0004100BD33
:102750000DF1080C00909CE80F00FFF773FE07B026
:1027600000BD0DF1080C9CE80F00FFF797FD07B0C6
:1027700000BD0DF1080C00909CE80F00FFF762FE11
:10278000E2E70000FB21E93F0000F07F10B591EA8D
:10279000030F48BF83F0004300F19A83841A71EB62
:1027A000030C05D2121943EB0C03001B61EB0C0167
:1027B000DFF824E14FEA1154A4EB135C1EEA430F47
:1027C00018BF9EEA445F73D023EA0E03DCF1200EAB
:1027D00021EA045143F4801332D322FA0CFE10EBA9
:1027E0000E0023FA0CFE41EB0E01CCF1200E03FA91
:1027F0000EFE10EB0E0051F10001B1F5801FCCF17F
:10280000200E32D201EB045112FA0EF2BDE8104054
:1028100058BF7047401C38BF5FEA420218BF70477C
:10282000002814BF20F0010041F100014FEA4103EC
:1028300013F5001F38BF7047A1F1C04100F02EBB57
:10284000012A43EB0302ACF1200CDCF11F0E32BF76
:102850004FF0000E23FA0CF310EB030041EB045190
:10286000B4EB115FD0D0A1EB045101F58011490800
:102870005FEA300001EB04510ED350F1000038BF85
:1028800012FA0EFE08D1BDE81040C9E7401C38BF5F
:102890005FEA4202CAD1C3E7BDE810404FEA4103F4
:1028A00013F5001F38BF7047A1F1C04100F0F6BA20
:1028B0009EEA445F08D011EA5E0FBDE8104004BFF5
:1028C00001F0004100207047BDE8104070B500F0F5
:1028D00097FA00BF64FBBE3E0000E0FF02494FF0E4
:1028E000000000F0D7BB00BF0000F87F2DE9C04119
:1028F00030B4DFF8A0C23CEA111418BF3CEA13144C
:1029000000F0EC8081EA03051CEA111444EAD57456
:1029100018BF1CEA131500F0C780A4EB05044FF0A4
:10292000004545EAC12145EAC32341EA505143EA43
:10293000525304F17F74994204F500344FEAC020E9
:102940004FEAC22208BF904200F09C804FEA136514
:102950000FF24016765D4FEA134506FB05F7C7F107
:10296000807706FB07F74FEAD737A7FB0368764265
:10297000C8F58038A7FB06CE38BFA8F1010807FBD1
:1029800008E64FF0000EA6FB028CE6FB03CEDCF15E
:10299000000CCEF1004E38BFAEF1010EA6FB0C5874
:1029A0004FF000074FF00005E6FB0E87A1FB08C6BD
:1029B000A0FB07CE16EB0E0645F10005E1FB07650F
:1029C00015F1E04E7EBFA4F580345FEA46066D4106
:1029D00016F1800745F100054FEA17274FEA066612
:1029E00047EA0567A6F1DE46B6F1805F4FEA152596
:1029F0001FD9384624F0010C05EBC471BCF1FE6F01
:102A000001EB0C1102D8F0BCBDE8008124425CBF90
:102A100001F5801E9EEAC47F02D4F0BCBDE80081AF
:102A2000244238D4F0BCA1F1C041BDE8004100F01F
:102A300035BA4FEAD22242EA43524FEAD323A7FBE8
:102A400002864FEAD02040EA415007FB03661EEAA7
:102A50000E0F4FEAD12105FB026658BFA6EB0056C8
:102A6000B6EB00564FEA520E4EEAC37E18EB0E0E3E
:102A700056EB530EBDD518EB02085E417F1C55F195
:102A80000005B6E74FF480154FF000074FF0000641
:102A90004FF00008ADE7F0BC4FF0000001F1C0417D
:102AA00001F00041BDE8008111EA0C1F0CEA13158A
:102AB00000D00CE013EA0C1F00F025804FF000005E
:102AC000F0BC81EA030101F00041BDE80081F0BCE7
:102AD000BDE8004181EA030100F0E0B9F0BCBDE8C7
:102AE000004170B500F08CF9097EFC3E00F007B89B
:102AF00081EA03014FF0000001F00041704781EAD4
:102B0000030100F0CBB9F0BCBDE800414FF000007C
:102B100021497047FFFDFBF9F7F5F4F2F0EEEDEB1C
:102B2000E9E8E6E4E3E1E0DEDDDBDAD8D7D5D4D3CB
:102B3000D1D0CFCDCCCBCAC8C7C6C5C4C2C1C0BF17
:102B4000BEBDBCBBBAB9B8B7B6B5B4B3B2B1B0AF1D
:102B5000AEADACABAAA9A8A8A7A6A5A4A3A3A2A101
:102B6000A09F9F9E9D9C9C9B9A99999897979695BC
:102B700095949393929191908F8F8E8E8D8C8C8B58
:102B80008B8A8989888887878685858484838382E0
:102B9000828181800000FF070000F87F4FEA410337
:102BA0004FEA5353A3F58063D3F11E03C8BFD3F19B
:102BB000210C0CDD4FF0004242EAC12242EA5052A1
:102BC00032FA03FC8CEAE17CACEBE1707047102B2D
:102BD000C4BF0020704703F5787CBCF1FF3F04D0F0
:102BE0006FF0004282EA2100704770B500F008F9EA
:102BF0004992248000207047F2E700004FEA115309
:102C0000A3F58063D3F11E03A8BFD3F1200C08DB2A
:102C10004FF0004242EAC12252EA505232FA03F027
:102C2000704709420BD4102BC4BF0020704703F536
:102C3000787CBCF1FF3F05D04FF0FF3070474FF07C
:102C40000000704770B500F0DBF800BF49922480A7
:102C500000207047F0E710F0004248BF4042B0FA51
:102C600080F310FA03F10AD0C3F11D0303F580636A
:102C70004FEA415002EB035202EBD12170474FF073
:102C800000007047B0FA80F310FA03F10AD0C3F1E4
:102C90001D0303F580634FEA41504FEA035202EBF4
:102CA000D12170474FF0000070470000DFF848C1A5
:102CB00070B51CEA111E1EBF1CEA13159EEA0C0F0C
:102CC00095EA0C0F00F06F8081EA030423EA4C13AD
:102CD0004EEAD47E21EA4C1141F4801143F4801372
:102CE000AE44A1FB024CA0FB0365AEF17F7E36191A
:102CF00055EB0C05A1FB034C4CF10003A0FB021C9F
:102D000016EB0C06654153F10003094218BF46F06B
:102D1000010613F4007F0BD14FEA03314FEA05306F
:102D2000340341EA155140EA16506FF003020AE0FD
:102D30004FEAC3214FEAC520F40241EA555140EA67
:102D400056506FF0020202EB2E4201EB025585EA6B
:102D5000CE710AD05FEA440C18BF24F0004450F151
:102D6000000041F1000120EAD47040F2FE7C62458F
:102D700000D270BDA84214BF4FF080444FF04044D1
:102D8000002E08BF0024BEF1806FA8BFA1F1C04192
:102D9000BDE8704080F282804FF0000001F1C04138
:102DA00001F0004170479EEA0C0F0CEA131518BFA2
:102DB00095EA0C0F06D04FF0000081EA030E0EF0EA
:102DC000004170BD00F01CF88900013E00F007B81A
:102DD00000F009B84FEA430C5FEA5C5C08D081EA76
:102DE000030100F05BB84FEA410C5FEA5C5CF6D18E
:102DF0004FF00000014970470000FF070000F87F16
:102E00000EF1020E2EF0030E5EF8046B364205D46E
:102E1000012A43EB030515F5001F12D8012841EBE9
:102E2000010C1CF5001F0CD80ED14FEAD17C15F512
:102E3000001F0CEB4C0C0CF1020C08BF4CEBD37CCC
:102E400004E04FF0080C01E04FEAD37C0CEB4C059A
:102E500026FA05F606F00706B6F1040C06D20EEBCC
:102E6000860CBDE870404CF0010C6047DFE80CF0C8
:102E7000090B02024FF000414FF00000A1F50021C4
:102E800070BD19461046012851EB010418BFD4F556
:102E9000001484BF002001F0004170BD0808A0F5B7
:102EA00000114FEA3101704791EA030F10B581F02C
:102EB00000413FF573AC83F0004300F009B8000017
:102EC00010B591EA030F48BF83F000433FF566ACAD
:102ED000841A71EB030C07D212198CF0004C43EBEF
:102EE0000C03001B61EB0C01DFF8A4E14FEA115465
:102EF000A4EB135C1EEA430F18BF9EEA445F00F088
:102F0000B08023EA6E03524221EA0451C3EB6E0300
:102F100038BF5B1EDCF1200E25D322FA0CFE10EB2D
:102F20000E0043FA0CFE41EB0E01CCF1200E03FA29
:102F30000EFE10EB0E0051F10001CCF1200E29D451
:102F400012FA0EF201EB0451BDE8104058BF704771
:102F5000401C1CBFB2F1004F704700280CBF491C39
:102F600020F00100704712EB020E43EB030218BF82
:102F70004FF0010E4EEA4202ACF1200CDCF11E0EC5
:102F800054D943FA0CFE10EB0E0051F1FF31CCF195
:102F90001E0ED5D50EF1010E12FA0EFE404141EB88
:102FA000010101EB445C5FEA5C5C10D910EBDE7060
:102FB00001EB045138BFBEF1004FBDE8104018BF0F
:102FC000704700280CBF491C20F00100704730D228
:102FD0004FEAD42C11F5001124F400641BD0B1FA8F
:102FE00081F20B3AA41AA41ED2F12003914030FAC8
:102FF00003F31943904001EBCC71002C01EB045119
:10300000BDE81040A8BF704701F1C0414FF000007B
:1030100001F000417047B0FA80F310FA03F100D1DB
:1030200010BDE41A173C4805C90AE4E701EB045156
:1030300010BD491001EB0451BDE810404FEA3000CB
:1030400002E04FF0000170474A0008BF0042F8D08C
:10305000B2F5001F28BF704701F000414FF000009B
:1030600070479EEA445F07D011EA5E0FBDE810404A
:1030700004BF002100207047BDE8104070B5FFF785
:10308000BFFE00BF40DFF63E83F0004110467047B0
:103090000000E0FF0CF00F03092B08BF082000F030
:1030A00059800A2B0BD0082B18BF704708BF1CF0A3
:1030B000400F0AD04FF000004FF0000170471CF0A5
:1030C000400F18BF4FF0004070471CF0100F08D0A1
:1030D00020F0704300F07F4242EAD3014FEA437090
:1030E000704700F0604021F07F4242EA000201F0A8
:1030F0007F4040EA727070474FF0FF0C4CF4E06C78
:103100001CEA11531CBF9CEA030C9445C2BFDA426F
:1031100001EB02517047002B0DD0BCF1000F0FD016
:10312000002A01F00041A4BF41F0E04141F07F617D
:103130004FF00000704701F000414FF00000704771
:1031400050EA01334FF09B0C18BF4CF0806C7FF4B9
:10315000C5AB70471CF4801F11D01CF4E02F03D0C6
:103160006FEACC31490070474FF04050EFF30082D6
:1031700022F0704242EA000282F3008870474FF06A
:10318000000070470000000000000000010203047E
:103190000607080900000000010203040000000007
:1031A0004C5555555555A53F7751C1166CC156BF65
:1031B0009015CB19A001FA3EAD529C804F7E92BE75
:1031C000C4B1B4BD9EEE213ED43888BEE9FAA8BD94
:1031D00000004054FB21F93F3163621A61B4D03DD5
:1031E0000000601A61B4D03D7370032E8A19A33BAE
:1031F0000000002E8A19A33BC14920259A837B3900
:1032000000000000000000006E83F9A22915444E62
:10321000D15727FCC0DD34F5999562DB4190433CE2
:10322000AB6351FE61C5BBDE3A6E24B7E0D24D42BE
:10323000EA2E49061C92D1091CEB1DFE3EA729B1BE
:10324000F53582E88444BB2E26709CE9417E5FB44C
:1032500039D69139F43953838B5F849C3B28F9BD6F
:10326000FF97F81F0F9805DE8B112FEF1F6D0A5A7D
:10327000CF7E366DB709CB27663F464F2DEA5F9E5E
:10328000C7BA27757BF1E5EBF739073DEA92528A19
:10329000B15FFB6B085D8D1FA6F810111111813F06
:1032A000D561C119A0012ABF7DFEB157E31DC73EFC
:1032B000EB9C2B8AE6E55ABE7CD5CF5A3AD9E53D40
:1032C000E032000800000020180000005C01000847
:1032D000F8320008180000205809000078010008A2
:1032E00000000000000000000100000010000000CD
:0832F000000000000024F400BE
:0400000508000121CD
:00000001FF
