:020000040800F2
:1000000070060020BD010008C5010008C7010008F6
:10001000C9010008CB010008CD0100080000000064
:10002000000000000000000000000000CF010008F8
:10003000D101000800000000D3010008D50100082C
:10004000D7010008D7010008D7010008D701000830
:10005000D7010008D7010008D7010008D701000820
:10006000D7010008D7010008D7010008D701000810
:10007000D7010008D7010008D7010008D701000800
:10008000D7010008D7010008D701000800000000D0
:10009000000000000000000000000000D701000880
:1000A000D7010008D7010008D7010008D7010008D0
:1000B000D7010008D7010008D7010008D7010008C0
:1000C000D7010008D7010008D7010008D7010008B0
:1000D000D7010008D7010008D7010008D7010008A0
:1000E000D7010008D7010008D70100080000000070
:1000F0000000000000000000000000000000000000
:1001000000000000000000000000000000000000EF
:100110000000000000000000D7010008D70100081F
:1001200000F002F800F03AF80AA090E8000C8244CF
:100130008344AAF10107DA4501D100F02FF8AFF2AC
:10014000090EBAE80F0013F0010F18BFFB1A43F0B5
:1001500001031847D40A0000F40A0000103A24BF33
:1001600078C878C1FAD8520724BF30C830C144BF1C
:1001700004680C607047000000230024002500265E
:10018000103A28BF78C1FBD8520728BF30C148BFFA
:100190000B6070471FB51FBD10B510BD00F031F8E2
:1001A0001146FFF7F7FF00F087FA00F04FF803B4AD
:1001B000FFF7F2FF03BC00F057F800000948804742
:1001C00009480047FEE7FEE7FEE7FEE7FEE7FEE739
:1001D000FEE7FEE7FEE7FEE704480549054A064B51
:1001E00070470000BD0500082101000870000020D4
:1001F00070060020700200207002002070477047D7
:100200007047754600F02CF8AE4605006946534627
:1002100020F00700854618B020B5FFF7DDFFBDE8E8
:1002200020404FF000064FF000074FF000084FF05D
:10023000000B21F00701AC46ACE8C009ACE8C009EE
:10024000ACE8C009ACE8C0098D46704710B504465B
:10025000AFF300802046BDE81040FFF7A8BF0000C4
:10026000004870471000002001491820ABBEFEE78F
:1002700026000200704721B1826842F001028260CC
:1002800003E0826822F00102826070470146C86C78
:1002900080B270470246002013680B400BB101206A
:1002A00000E000207047000030B502460020002327
:1002B00050680F4C20400D790C6844EA0524204317
:1002C000506090680B4C2040D1E902542C434D798A
:1002D00044EA450420439060D06A20F470000C7C0E
:1002E000641EE4B2234340EA0350D06230BD0000F4
:1002F000FFFEF0FFFDF7F1FFF0B504460D460020CC
:100300000021092D11DDE068A5F10A0606EB46077C
:10031000072606FA07F18843A5F10A0606EB46060A
:1003200003FA06F10843E0600CE0206905EB45079D
:10033000072606FA07F1884305EB450603FA06F19E
:1003400008432061072A0FDA606B561E06EB86070A
:100350001F2606FA07F18843561E06EB860605FAA5
:1003600006F10843606322E00D2A0FDA206BD61FE6
:1003700006EB86071F2606FA07F18843D61F06EB11
:10038000860605FA06F10843206310E0E06AA2F150
:100390000D0606EB86071F2606FA07F18843A2F131
:1003A0000D0606EB860605FA06F10843E062F0BD8D
:1003B00021B1826842F4A002826003E0826822F4E4
:1003C000A002826070472DE9F04102460025002618
:1003D000002000230024002791F803C00CF00F0533
:1003E00091F803C00CF0100CBCF1000F03D091F891
:1003F00002C04CEA050591F800C0BCF1000F31D0F5
:10040000146800202BE04FF0010C0CFA00F3B1F857
:1004100000C00CEA03069E4220D183004FF00F0C6F
:100420000CFA03F7BC4305FA03FC4CEA040491F808
:1004300003C0BCF1280F06D14FF0010C0CFA00FCF0
:10044000C2F814C00AE091F803C0BCF1480F05D10E
:100450004FF0010C0CFA00FCC2F810C0401C082838
:10046000D1D31460B1F800C0BCF1FF0F34DD546883
:1004700000202EE000F1080C4FF0010808FA0CF300
:10048000B1F800C00CEA03069E4221D183004FF070
:100490000F0C0CFA03F7BC4305FA03FC4CEA040406
:1004A00091F803C0BCF1280F05D100F1080C08FA3F
:1004B0000CF8C2F8148091F803C0BCF1480F07D1C2
:1004C00000F1080C4FF0010808FA0CF8C2F810808F
:1004D000401C0828CED35460BDE8F08129B1064AFB
:1004E00092690243044B9A6104E0034A9269824391
:1004F000014B9A61704700000010024010B500F0F7
:1005000001F810BD0CB50020019000902A48006849
:1005100040F480302849086000BF2748006800F494
:10052000003000900198401C0190009818B9019883
:10053000B0F5A06FF1D12048006800F4003010B190
:100540000120009001E0002000900098012831D1A6
:10055000194840681849486008464068486008469D
:10056000406848600846406820F47C1048600846AF
:10057000406840F4981048600846006840F0807079
:10058000086000BF0C48006800F000700028F9D037
:100590000948406820F00300074948600846406861
:1005A00040F00200486000BF0348406800F00C00C3
:1005B0000828F9D10CBD00000010024010B5144805
:1005C000006840F00100124908600846406811497F
:1005D00008400F494860084600680F4908400C4928
:1005E00008600846006820F48020086008464068DB
:1005F00020F4FE0048604FF41F0088600020C862AD
:10060000FFF77CFF4FF000600449086010BD000058
:10061000001002400000FFF8FFFFF6FE08ED00E0CA
:1006200000B585B001214802FFF758FF01208DF881
:100630000500002003904FF46020029000200090FD
:1006400001208DF8100000208DF804006946044850
:10065000FFF72AFE01210248FFF70DFE05B000BD9D
:100660000024014010B50523012203210848FFF7AB
:1006700043FE01210648FFF79BFE00BF022104480C
:10068000FFF708FE0028F9D00148FFF7FFFD10BD75
:100690000024014008B501210420FFF71FFF0020BE
:1006A0008DF803000820ADF8000069460148FFF707
:1006B0008AFE08BD0008014008B5FFF7EBFFFFF711
:1006C000AFFF12E0FFF7CEFF084908800846008818
:1006D00000F054F904460020054B024605490090FD
:1006E000204600F00BF804490860EBE7000000200A
:1006F00052B81E4000F07F450C0000202DE9F05F4D
:1007000004460D4616461F46DDF828803146284629
:1007100000F014FA82464146384600F00FFA83464C
:10072000514600F069F88146214600F03BF9BDE8EA
:10073000F09F000090EA010F48BF81F0004100F1F6
:100740000482421A3CBF801A89184FEAD0524FF0F7
:100750007F4C1CEA410FA2EBD15318BF9CEA026FF9
:1007600000F03B804FF0004C4CEA00204CEA0121A5
:1007700021FA03FC10EB0C0C1ED202F1FF325FEAEF
:100780001C2040EBC25038BF70471CF07F0F4FEA6F
:10079000400C18BFBCF17F4F38BF7047C3F1200336
:1007A000994008BF20F00100BCF17F4F38BF70476F
:1007B000A0F1C04000F0BDB94FEA3C00000A40EB98
:1007C000C25028BF1CF0FF0F4FEA400CE6D018BF04
:1007D000BCF17F4F38BF7047EAE79CEA026F05D053
:1007E00010EA5C0F08BF00F00040704710B500F041
:1007F0005AF900BF64FBBE3E4FF47F0C1CEAD012D6
:100800001EBF1CEAD11392EA0C0F93EA0C0F00F002
:10081000858090EA010F48BF42F4807240F4000CDA
:1008200041F400002CF07F4120F07F4000B5814270
:10083000A2EB03020FF2081CACEB504EC0F100001B
:100840009EF800E04FEA4E0E00FB0EFC38BF490058
:100850004FEA2C1C02F5FA020CFB0EF34FEACE1EF7
:100860004FEA112C4FEAC1210EEB635E42EB2242AC
:100870000EFB0CFC4FEA1C5300FB03114FEA112C3A
:100880004FEA01310EFB0CFC4FEADC4C00FB0C1173
:10089000C14228BF09184CEB03335DF804EB10EBA1
:1008A000410143EBC250B2F57C0F38BF704729D5E8
:1008B00012F0F00F1CBF00F1C04000F00040704784
:1008C000008182838485868788898B8C8D8E8F9129
:1008D0009293959697999A9C9D9FA0A2A3A5A7A84D
:1008E000AAACAEB0B2B3B5B7B9BCBEC0C2C5C7C979
:1008F000CCCED1D4D7D9DCDFE2E6E9ECF0F3F7FADD
:10090000FE0000004FEA400C0CF1807CBCF17E4FF1
:1009100028BF7047B0F1C04000F00BB990EA010F5A
:100920000CEAD11348BF42F48072624538BF634578
:1009300007D213F47F0F16D080EA010000F00040C8
:10094000704710B500F0AFF8097EFC3E00F005B826
:1009500080EA010000F00040704780EA010000F0EA
:10096000004000F0E6B812F47F0F04BF0248704761
:1009700080EA010000F0DDB80000C07FB0FA80F32B
:1009800010FA03F2C3F19D030AD0D90501EB12203E
:10099000530638BF704700F1010008BF20F0010086
:1009A000704700004FF47F0C1CEAD0121EBF1CEAF7
:1009B000D11392EA0C0F93EA0C0F00F0478090EAF3
:1009C000010F48BF42F480724FF0004C4CEA002007
:1009D0004CEA012102EB0302A0FB0113A2F5000285
:1009E000002918BF43F001035B0028BF4FEA33031F
:1009F00042EB22425FEA132C4CEBC2502EBFBCEB01
:100A0000436FB2F57C0F70474FEA036CBCF1004FA7
:100A100008BF20F00100B2F57C0F38BF70470BD53E
:100A200082F0FF0212F5803FC8BF704700F1C0405E
:100A3000D8BF00F00040704700F5000C5FEA4C0C96
:100A400048BF7047B0F1C04000F073B890EA010FA2
:100A50000CEAD11348BF42F48072624538BF634547
:100A600004D280EA010000F00040704710B500F0A9
:100A70001AF800BF8900013E00F007B800F009B87D
:100A80005FEA410C5FEA1C6C08D080EA010000F0CC
:100A900050B85FEA400C5FEA1C6CF6D14FF00040A2
:100AA000A0F5800070470EF1020E2EF0030E5EF8E6
:100AB000044B244204D44FEA4102B2F17F4F11D8D3
:100AC0004FEA4003B3F17F4F0CD80ED14FEAD07CF0
:100AD000B2F17F4F0CEB4C0C0CF1020C08BF4CEB4D
:100AE000D17C04E04FF0080C01E04FEAD17C0CEB24
:100AF0004C0324FA03F404F00704B4F1040C06D206
:100B00000EEB840CBDE810404CF0010C6047DFE8B0
:100B10000CF0070802024FF00040A0F5800010BD65
:100B20000846420018BFD2F1807288BF00F0004032
:100B300010BDFF2141EAD050C005704790EA010F77
:100B400048BF81F000413FF5FCAD421A04D882F065
:100B50000042A0EB020011444FEAD0524FF07F4C0C
:100B60001CEA410FA2EBD15318BF9CEA026F4AD096
:100B70004FF0004C4CEA00204CEA012121FA03FC22
:100B8000B0EB0C0C0FD412F0FE0F36D05FEA4C0025
:100B90001DD5001240EBC25038BF70471CF03F0F0C
:100BA00018BF70470BE0A2F101025FEA1C2040EB86
:100BB000C25038BF70471CF07F0F18BF7047C3F199
:100BC0002003994014BF401E20F0010070478008A8
:100BD0004FEA122308BF7047B0FA80FCA2EB0C0268
:100BE000CCF1280C60FA0CF093EA122F04BF00EB52
:100BF000C25070474FEAC3707047130A5FEADC10B7
:100C000008BF7047F6E79CEA026F04D010EA5C0F59
:100C100008BF0020704710B5FFF745FF40DFF63EE4
:100C200081F0004070470000480C000800000020E0
:100C3000100000005C010008580C000810000020A3
:100C400060060000780100080000000000000000BD
:080C500000000000000000009C
:04000005080001BD31
:00000001FF
