:020000040800F2
:1000000078060020BD010008C5010008C7010008EE
:10001000C9010008CB010008CD0100080000000064
:10002000000000000000000000000000CF010008F8
:10003000D101000800000000D3010008DD04000821
:10004000D7010008D7010008D7010008D701000830
:10005000D7010008D7010008D7010008D701000820
:10006000D7010008D7010008D7010008D701000810
:10007000D7010008D7010008D7010008D701000800
:10008000D7010008D7010008D701000800000000D0
:10009000000000000000000000000000D701000880
:1000A000D7010008D7010008D7010008D7010008D0
:1000B000D7010008D7010008D7010008D7010008C0
:1000C000D7010008D7010008D7010008D7010008B0
:1000D000D7010008D7010008D7010008D7010008A0
:1000E000D7010008D7010008D70100080000000070
:1000F0000000000000000000000000000000000000
:1001000000000000000000000000000000000000EF
:100110000000000000000000D7010008D70100081F
:1001200000F002F800F03AF80AA090E8000C8244CF
:100130008344AAF10107DA4501D100F02FF8AFF2AC
:10014000090EBAE80F0013F0010F18BFFB1A43F0B5
:10015000010318471805000038050000103A24BFB5
:1001600078C878C1FAD8520724BF30C830C144BF1C
:1001700004680C607047000000230024002500265E
:10018000103A28BF78C1FBD8520728BF30C148BFFA
:100190000B6070471FB51FBD10B510BD00F031F8E2
:1001A0001146FFF7F7FF00F047FA00F04FF803B4ED
:1001B000FFF7F2FF03BC00F057F800000948804742
:1001C00009480047FEE7FEE7FEE7FEE7FEE7FEE739
:1001D000FEE7FEE7FEE7FEE704480549054A064B51
:1001E00070470000950500082101000878000020F4
:1001F00078060020780200207802002070477047BF
:100200007047754600F02CF8AE4605006946534627
:1002100020F00700854618B020B5FFF7DDFFBDE8E8
:1002200020404FF000064FF000074FF000084FF05D
:10023000000B21F00701AC46ACE8C009ACE8C009EE
:10024000ACE8C009ACE8C0098D46704710B504465B
:10025000AFF300802046BDE81040FFF7A8BF0000C4
:10026000004870471800002001491820ABBEFEE787
:10027000260002007047000070B500F03BF91448FA
:1002800000684FF47A72B0FBF2F1481EB0F1807F43
:1002900000D31BE0481E4FF0E022506150170F22A0
:1002A000002804DB13071C0E0A4B1C5406E013073E
:1002B0001D0E094B00F00F04241F1D5500BF002028
:1002C0004FF0E02290610720106100BF70BD000078
:1002D0000400002000E400E018ED00E02DE9F0410A
:1002E000024600250026002000230024002791F864
:1002F00003C00CF00F0591F803C00CF0100CBCF11A
:10030000000F03D091F802C04CEA050591F800C037
:10031000BCF1000F31D0146800202BE04FF0010C2D
:100320000CFA00F3B1F800C00CEA03069E4220D19B
:1003300083004FF00F0C0CFA03F7BC4305FA03FCE3
:100340004CEA040491F803C0BCF1280F06D14FF029
:10035000010C0CFA00FCC2F814C00AE091F803C0CA
:10036000BCF1480F05D14FF0010C0CFA00FCC2F8AB
:1003700010C0401C0828D1D31460B1F800C0BCF1F3
:10038000FF0F34DD546800202EE000F1080C4FF020
:10039000010808FA0CF3B1F800C00CEA03069E420B
:1003A00021D183004FF00F0C0CFA03F7BC4305FA80
:1003B00003FC4CEA040491F803C0BCF1280F05D1FA
:1003C00000F1080C08FA0CF8C2F8148091F803C088
:1003D000BCF1480F07D100F1080C4FF0010808FAF2
:1003E0000CF8C2F81080401C0828CED35460BDE839
:1003F000F0814161704701617047000029B1064AF0
:1004000092690243044B9A6104E0034A9269824371
:10041000014B9A61704700000010024010B500F0D7
:1004200001F810BD0CB50020019000902A4800682A
:1004300040F480302849086000BF2748006800F475
:10044000003000900198401C0190009818B9019864
:10045000B0F5A06FF1D12048006800F4003010B171
:100460000120009001E0002000900098012831D187
:10047000194840681849486008464068486008467E
:10048000406848600846406820F47C104860084690
:10049000406840F4981048600846006840F080705A
:1004A000086000BF0C48006800F000700028F9D018
:1004B0000948406820F00300074948600846406842
:1004C00040F00200486000BF0348406800F00C00A4
:1004D0000828F9D10CBD0000001002400448006853
:1004E00020B103480068401E0149086070470000C1
:1004F0000000002030B50021002000220023204C05
:10050000646804F00C0121B1042906D0082925D122
:1005100007E01C4C1C4D2C6024E01A4C1A4D2C603A
:1005200020E0174C646804F47010154C646804F4FF
:100530008032022404EB904022B9144C4443124D03
:100540002C600AE00E4CE46A04F00F04631C0D4CAE
:10055000B4FBF3F444430C4D2C6003E0094C0A4D0A
:100560002C6000BF00BF064C6468C4F30314084D40
:10057000295D054C2468CC40034D2C6030BD000043
:100580000010024000127A000400002000093D0023
:100590000800002010B51448006840F0010012491E
:1005A000086008464068114908400F4948600846FD
:1005B00000680F4908400C4908600846006820F4AC
:1005C000802008600846406820F4FE0048604FF430
:1005D0001F0088600020C862FFF720FF4FF0006016
:1005E0000449086010BD0000001002400000FFF840
:1005F000FFFFF6FE08ED00E00349086000BF024976
:1006000009680029FBD170470000002008B50121CE
:100610001020FFF7F3FE10208DF803004001ADF825
:10062000000003208DF8020069460248FFF756FEDD
:1006300008BD000000100140FFF7E8FFFFF71CFEB7
:1006400011E04FF400710848FFF7D5FE4FF47A70BF
:10065000FFF7D2FF4FF400710348FFF7CAFE4FF4D3
:100660007A70FFF7C9FFECE7001001408C06000824
:1006700000000020180000005C010008A40600082B
:10068000180000206006000078010008000000004B
:1006900000366E01000000000000000001020304AB
:0406A0000607080938
:04000005080001BD31
:00000001FF
