:020000040800F2
:1000000090060020BD010008C5010008C7010008D6
:10001000C9010008CB010008CD0100080000000064
:10002000000000000000000000000000CF010008F8
:10003000D101000800000000D3010008D50100082C
:10004000D7010008D7010008D7010008D701000830
:10005000D7010008D7010008D7010008D701000820
:10006000D7010008D7010008D7010008D701000810
:10007000D7010008D7010008D7010008D701000800
:10008000D7010008D7010008D701000800000000D0
:10009000000000000000000000000000D701000880
:1000A000D7010008D7010008D7010008D7010008D0
:1000B000D7010008D7010008D7010008D7010008C0
:1000C000D7010008D7010008D7010008D7010008B0
:1000D000D7010008D7010008D7010008D7010008A0
:1000E000D7010008D7010008D70100080000000070
:1000F0000000000000000000000000000000000000
:1001000000000000000000000000000000000000EF
:100110000000000000000000D7010008D70100081F
:1001200000F002F800F03AF80AA090E8000C8244CF
:100130008344AAF10107DA4501D100F02FF8AFF2AC
:10014000090EBAE80F0013F0010F18BFFB1A43F0B5
:10015000010318474406000064060000103A24BF5B
:1001600078C878C1FAD8520724BF30C830C144BF1C
:1001700004680C607047000000230024002500265E
:10018000103A28BF78C1FBD8520728BF30C148BFFA
:100190000B6070471FB51FBD10B510BD00F031F8E2
:1001A0001146FFF7F7FF00F0B3FA00F04FF803B481
:1001B000FFF7F2FF03BC00F057F800000948804742
:1001C00009480047FEE7FEE7FEE7FEE7FEE7FEE739
:1001D000FEE7FEE7FEE7FEE704480549054A064B51
:1001E0007047000049050008210100089000002028
:1001F0009006002090020020900200207047704777
:100200007047754600F02CF8AE4605006946534627
:1002100020F00700854618B020B5FFF7DDFFBDE8E8
:1002200020404FF000064FF000074FF000084FF05D
:10023000000B21F00701AC46ACE8C009ACE8C009EE
:10024000ACE8C009ACE8C0098D46704710B504465B
:10025000AFF300802046BDE81040FFF7A8BF0000C4
:10026000004870472C00002001491820ABBEFEE773
:100270002600020070472DE9F041024600250026C5
:10028000002000230024002791F803C00CF00F0584
:1002900091F803C00CF0100CBCF1000F03D091F8E2
:1002A00002C04CEA050591F800C0BCF1000F31D046
:1002B000146800202BE04FF0010C0CFA00F3B1F8A9
:1002C00000C00CEA03069E4220D183004FF00F0CC1
:1002D0000CFA03F7BC4305FA03FC4CEA040491F85A
:1002E00003C0BCF1280F06D14FF0010C0CFA00FC42
:1002F000C2F814C00AE091F803C0BCF1480F05D160
:100300004FF0010C0CFA00FCC2F810C0401C082889
:10031000D1D31460B1F800C0BCF1FF0F34DD5468D4
:1003200000202EE000F1080C4FF0010808FA0CF351
:10033000B1F800C00CEA03069E4221D183004FF0C1
:100340000F0C0CFA03F7BC4305FA03FC4CEA040457
:1003500091F803C0BCF1280F05D100F1080C08FA90
:100360000CF8C2F8148091F803C0BCF1480F07D113
:1003700000F1080C4FF0010808FA0CF8C2F81080E0
:10038000401C0828CED35460BDE8F081416170471D
:100390000161704729B1064A92690243044B9A6190
:1003A00004E0034A92698243014B9A61704700005E
:1003B0000010024070B50021002300240022002517
:1003C0002C4E766806F00C0121B1042905D00829CD
:1003D00021D105E0284E066020E0274E06601DE092
:1003E000244E766806F47013224E766806F4803444
:1003F000022606EB93431CB9204E5E43066009E0DB
:100400001C4EF66A06F00F06751C1B4EB6FBF5F681
:100410005E43066002E0184E066000BF00BF154E46
:10042000766806F0F0010909154E725C0668D64040
:100430004660104E766806F4E061090A104E725C60
:100440004668D64086600B4E766806F46051C90A4D
:100450000B4E725C4668D640C660064E766806F45F
:100460004041890B074E725CC668B6FBF2F6066126
:1004700070BD00000010024000127A0000093D002B
:10048000160000202600002010B500F001F810BD75
:100490000CB50020019000902A48006840F480309C
:1004A0002849086000BF2748006800F40030009029
:1004B0000198401C0190009818B90198B0F5A06F00
:1004C000F1D12048006800F4003010B10120009004
:1004D00001E0002000900098012831D119484068BF
:1004E00018494860084640684860084640684860C7
:1004F0000846406820F47C1048600846406840F494
:10050000981048600846006840F08070086000BF9E
:100510000C48006800F000700028F9D009484068D5
:1005200020F00300074948600846406840F0020098
:10053000486000BF0348406800F00C000828F9D16B
:100540000CBD00000010024010B51448006840F0D7
:1005500001001249086008464068114908400F49E7
:100560004860084600680F4908400C490860084682
:10057000006820F4802008600846406820F4FE00EF
:1005800048604FF41F0088600020C862FFF77CFFBE
:100590004FF000600449086010BD000000100240E8
:1005A0000000FFF8FFFFF6FE08ED00E021B18289B0
:1005B00042F40052828104E082894DF6FF731A40B2
:1005C000828170472DE9F04786B005460E4600242B
:1005D000A24600BFA1460027B08900B100BF2F4648
:1005E0002C8A4CF6FF700440F08804432C82AC89BE
:1005F0004EF6F3100440B0883189084371890843EE
:100600000443AC81AC8A4FF6FF400440B0890443F8
:10061000AC8201A8FFF7CEFE1F48874202D1DDF869
:1006200010A001E0DDF80CA0A88900F4004040B162
:100630000AEBCA0000EB0A1031684900B0FBF1F880
:1006400007E00AEBCA0000EB0A1031688900B0FB32
:10065000F1F86420B8FBF0F004012009642101FBEB
:100660001089A88900F4004040B1322000EBC90095
:10067000B0FBF1F000F00700044308E0322000EB8B
:1006800009106421B0FBF1F000F00F0004432C814D
:1006900006B0BDE8F08700000038014001468888B8
:1006A000C0F308007047000008B501210420FFF7DF
:1006B00071FE01211020FFF76DFE18208DF8030058
:1006C0004FF40070ADF8000003208DF80200694679
:1006D0000D48FFF7D0FD04208DF803000002ADF8AF
:1006E000000069460848FFF7C6FD10208DF803009A
:1006F0004001ADF8000003208DF802006946034870
:10070000FFF7B9FD08BD00000008014000100140DE
:10071000FFF7CAFF00F020F817E00C48FFF7BEFF14
:100720000B49088008460088312805D14FF4007134
:100730000848FFF72DFE08E005480088302804D15E
:100740004FF400710348FFF721FEE6E7003801404F
:1007500014000020001001401FB501218803FFF79D
:1007600019FE4FF4165000900020ADF80C000C203C
:10077000ADF80A000020ADF80800ADF80600ADF8AD
:10078000040069460348FFF71DFF01210148FFF7F8
:100790000DFF1FBD00380140B80700080000002011
:1007A0002C0000005C010008E40700082C00002079
:1007B000640600007801000848454C4C4F20574F14
:1007C00052440D0A0000000000000000000000007C
:1007D00000000102030401020304060708090204E1
:0407E0000608000007
:04000005080001BD31
:00000001FF
