:020000040800F2
:1000000070060020BD010008C5010008C7010008F6
:10001000C9010008CB010008CD0100080000000064
:10002000000000000000000000000000CF010008F8
:10003000D101000800000000D3010008D50100082C
:10004000D7010008D7010008D7010008D701000830
:10005000D7010008D7010008D7010008D701000820
:10006000D7010008D7010008D7010008D701000810
:10007000D7010008D7010008D7010008D701000800
:10008000D7010008D7010008D701000800000000D0
:10009000000000000000000000000000D701000880
:1000A000D7010008D7010008D7010008D7010008D0
:1000B000D7010008D7010008D7010008D7010008C0
:1000C000D7010008D7010008D7010008D7010008B0
:1000D000D7010008D7010008D7010008D7010008A0
:1000E000C9030008D7010008D7010008000000007C
:1000F0000000000000000000000000000000000000
:1001000000000000000000000000000000000000EF
:100110000000000000000000D7010008D70100081F
:1001200000F002F800F03AF80AA090E8000C8244CF
:100130008344AAF10107DA4501D100F02FF8AFF2AC
:10014000090EBAE80F0013F0010F18BFFB1A43F0B5
:1001500001031847080D0000280D0000103A24BFC5
:1001600078C878C1FAD8520724BF30C830C144BF1C
:1001700004680C607047000000230024002500265E
:10018000103A28BF78C1FBD8520728BF30C148BFFA
:100190000B6070471FB51FBD10B510BD00F031F8E2
:1001A0001146FFF7F7FF00F035FC00F04FF803B4FD
:1001B000FFF7F2FF03BC00F057F800000948804742
:1001C00009480047FEE7FEE7FEE7FEE7FEE7FEE739
:1001D000FEE7FEE7FEE7FEE704480549054A064B51
:1001E000704700003D070008210100087000002052
:1001F00070060020700200207002002070477047D7
:100200007047754600F02CF8AE4605006946534627
:1002100020F00700854618B020B5FFF7DDFFBDE8E8
:1002200020404FF000064FF000074FF000084FF05D
:10023000000B21F00701AC46ACE8C009ACE8C009EE
:10024000ACE8C009ACE8C0098D46704710B504465B
:10025000AFF300802046BDE81040FFF7A8BF0000C4
:10026000004870470C00002001491820ABBEFEE793
:1002700026000200704721B1826842F001028260CC
:1002800003E0826822F00102826070470146C86C78
:1002900080B270470246002013680B400BB101206A
:1002A00000E000207047000030B502460020002327
:1002B00050680F4C20400D790C6844EA0524204317
:1002C000506090680B4C2040D1E902542C434D798A
:1002D00044EA450420439060D06A20F470000C7C0E
:1002E000641EE4B2234340EA0350D06230BD0000F4
:1002F000FFFEF0FFFDF7F1FFF0B504460D460020CC
:100300000021092D11DDE068A5F10A0606EB46077C
:10031000072606FA07F18843A5F10A0606EB46060A
:1003200003FA06F10843E0600CE0206905EB45079D
:10033000072606FA07F1884305EB450603FA06F19E
:1003400008432061072A0FDA606B561E06EB86070A
:100350001F2606FA07F18843561E06EB860605FAA5
:1003600006F10843606322E00D2A0FDA206BD61FE6
:1003700006EB86071F2606FA07F18843D61F06EB11
:10038000860605FA06F10843206310E0E06AA2F150
:100390000D0606EB86071F2606FA07F18843A2F131
:1003A0000D0606EB860605FA06F10843E062F0BD8D
:1003B00021B1826842F4A002826003E0826822F4E4
:1003C000A00282607047000010B54FF4806000F01A
:1003D00013F820B104480088401C034908804FF4FA
:1003E000806000F003F810BD0A0000200149086099
:1003F0007047000014040140014600200022074B12
:100400001B6803EA0102054B14331B680B4013B150
:100410000AB1012000E00020704700000004014004
:10042000002123498279002A3AD00A4612680368DB
:100430009A430B461A600A1D126803689A430B1D03
:100440001A60027911440A6803681A430A60184A5C
:100450000832126803689A43154B08331A601A1D54
:10046000126803689A43124B0C331A604279102ABF
:100470000ED11A1F126803681A430D4B08331A6015
:100480001A1D126803681A43094B0C331A600DE0F9
:100490000749427911440A6803681A430A6005E073
:1004A000027911440A6803689A430A6070470000A1
:1004B000000401402DE9F0410246002500260020FD
:1004C00000230024002791F803C00CF00F0591F8D9
:1004D00003C00CF0100CBCF1000F03D091F802C067
:1004E0004CEA050591F800C0BCF1000F31D014684A
:1004F00000202BE04FF0010C0CFA00F3B1F800C023
:100500000CEA03069E4220D183004FF00F0C0CFA38
:1005100003F7BC4305FA03FC4CEA040491F803C05A
:10052000BCF1280F06D14FF0010C0CFA00FCC2F808
:1005300014C00AE091F803C0BCF1480F05D14FF098
:10054000010C0CFA00FCC2F810C0401C0828D1D3E2
:100550001460B1F800C0BCF1FF0F34DD5468002016
:100560002EE000F1080C4FF0010808FA0CF3B1F886
:1005700000C00CEA03069E4221D183004FF00F0C0D
:100580000CFA03F7BC4305FA03FC4CEA040491F8A7
:1005900003C0BCF1280F05D100F1080C08FA0CF8D3
:1005A000C2F8148091F803C0BCF1480F07D100F1E4
:1005B000080C4FF0010808FA0CF8C2F81080401C33
:1005C0000828CED35460BDE8F081000070B500214A
:1005D00000230F22C47804B3154C246804F4E064AB
:1005E000C4F5E064210AC1F10403CA40447804FA66
:1005F00003F184781440214309010E4C0678A1557B
:10060000047804F01F050124AC4005786D11AD009D
:1006100005F1E025C5F8004109E0047804F01F0564
:100620000124AC40044D0678761145F8264070BD93
:100630000CED00E000E400E080E100E029B1064AB2
:10064000D2690243044BDA6104E0034AD26982436F
:10065000014BDA61704700000010024029B1064AE0
:1006600092690243044B9A6104E0034A926982430F
:10067000014B9A61704700000010024010B500F075
:1006800001F810BD0CB50020019000902A480068C8
:1006900040F480302849086000BF2748006800F413
:1006A000003000900198401C0190009818B9019802
:1006B000B0F5A06FF1D12048006800F4003010B10F
:1006C0000120009001E0002000900098012831D125
:1006D000194840681849486008464068486008461C
:1006E000406848600846406820F47C10486008462E
:1006F000406840F4981048600846006840F08070F8
:10070000086000BF0C48006800F000700028F9D0B5
:100710000948406820F003000749486008464068DF
:1007200040F00200486000BF0348406800F00C0041
:100730000828F9D10CBD00000010024010B5144883
:10074000006840F0010012490860084640681149FD
:1007500008400F494860084600680F4908400C49A6
:1007600008600846006820F4802008600846406859
:1007700020F4FE0048604FF41F0088600020C8622B
:10078000FFF77CFF4FF000600449086010BD0000D7
:10079000001002400000FFF8FFFFF6FE08ED00E049
:1007A00021B1028842F00102028004E002884FF683
:1007B000FE731A400280704770B5002400220023A7
:1007C000058C4FF6FE7635400584028C8388048BB9
:1007D0004FF68F752C40B51E2C400D882C43751E8E
:1007E0002A400D892A434D882A43144DA8420BD034
:1007F000134DA84208D0134DA84205D0124DA8426F
:1008000002D0124DA84213D14FF6F7752A404D89F8
:100810002A434FF6FB752A408D882A434FF6FF6521
:100820002B404FF6FF552B408D892B43CD892B4311
:1008300083800483CD888586028470BD002C0140AE
:1008400000340140004001400044014000480140A4
:100850000A460021018B4FF6F773194011430183BB
:1008600070470000002202881D4B98420ED01D4B9D
:1008700098420BD0B0F1804F08D01B4B984205D066
:100880001A4B984202D01A4B984204D14FF68F73FC
:100890001A404B881A43174B984207D0164B984280
:1008A00004D04FF6FF431A40CB881A4302808B884E
:1008B00083850B8803850A4B98420BD0094B9842DD
:1008C00008D00E4B984205D00D4B984202D00D4BEC
:1008D000984201D10B7A038601238382704700007E
:1008E000002C01400034014000040040000800409A
:1008F000000C004000100040001400400040014087
:10090000004401400048014000B585B00121480283
:10091000FFF7A4FE01208DF80500002003904FF49E
:10092000602002900020009001208DF8100000202F
:100930008DF8040069460448FFF7B6FC012102481F
:10094000FFF799FC05B000BD0024014010B5052358
:10095000012206210848FFF7CFFC01210648FFF7D6
:1009600027FD00BF02210448FFF794FC0028F9D0BE
:100970000148FFF78BFC10BD002401400EB54FF479
:100980008060019001208DF80A0000208DF8080099
:1009900008208DF8090001A8FFF742FD28208DF8F6
:1009A000000001208DF803008DF801008DF8020091
:1009B0006846FFF70BFE0EBD08B501210420FFF7C6
:1009C0004DFE00208DF803004020ADF80000694680
:1009D0000F48FFF76FFD18208DF803000F20ADF8CA
:1009E000000003208DF8020069460948FFF762FD08
:1009F00028208DF803004FF48060ADF8000003203C
:100A00008DF8020069460248FFF754FD08BD00005A
:100A100000080140FFF7D0FFFFF776FF00F03DF838
:100A2000FFF7ACFF15E0FFF791FF044600F036F941
:100A30000849086008490748006800F043F904467F
:100A4000064900F049F8064908600846006800F0C9
:100A500009F8E8E70000002000F0154500F07F45A8
:100A6000040000201FB504466020ADF800000020FF
:100A7000ADF808000120ADF80200204600F0EEF8C5
:100A800080B2ADF8060069464FF08040FFF794FE53
:100A90000821C806FFF7DCFE1FBD0EB50121084680
:100AA000FFF7CCFD0020ADF80600ADF8020040F6DF
:100AB0005F10ADF804000A20ADF8000000208DF8AA
:100AC000080069464FF08040FFF7CCFE01218807FF
:100AD000FFF766FE0EBD00004FF47F0C1CEAD0123B
:100AE0001EBF1CEAD11392EA0C0F93EA0C0F00F020
:100AF000858090EA010F48BF42F4807240F4000CF8
:100B000041F400002CF07F4120F07F4000B581428D
:100B1000A2EB03020FF2081CACEB504EC0F1000038
:100B20009EF800E04FEA4E0E00FB0EFC38BF490075
:100B30004FEA2C1C02F5FA020CFB0EF34FEACE1E14
:100B40004FEA112C4FEAC1210EEB635E42EB2242C9
:100B50000EFB0CFC4FEA1C5300FB03114FEA112C57
:100B60004FEA01310EFB0CFC4FEADC4C00FB0C1190
:100B7000C14228BF09184CEB03335DF804EB10EBBE
:100B8000410143EBC250B2F57C0F38BF704729D505
:100B900012F0F00F1CBF00F1C04000F000407047A1
:100BA000008182838485868788898B8C8D8E8F9146
:100BB0009293959697999A9C9D9FA0A2A3A5A7A86A
:100BC000AAACAEB0B2B3B5B7B9BCBEC0C2C5C7C996
:100BD000CCCED1D4D7D9DCDFE2E6E9ECF0F3F7FAFA
:100BE000FE0000004FEA400C0CF1807CBCF17E4F0F
:100BF00028BF7047B0F1C04000F02BB990EA010F58
:100C00000CEAD11348BF42F48072624538BF634595
:100C100007D213F47F0F16D080EA010000F00040E5
:100C2000704710B500F0CFF8097EFC3E00F005B823
:100C300080EA010000F00040704780EA010000F007
:100C4000004000F006B912F47F0F04BF024870475D
:100C500080EA010000F0FDB80000C07FC10DD1F1B5
:100C60009E0206DB4FEA002343F0004323FA02F022
:100C70007047004207D54FEA4001B1F1FE4F02D262
:100C80004FF00000704710B500F09DF849922480A5
:100C9000002070476FEA200070470000B0FA80F330
:100CA00010FA03F2C3F19D030AD0D90501EB12201B
:100CB000530638BF704700F1010008BF20F0010063
:100CC000704700004FF47F0C1CEAD0121EBF1CEAD4
:100CD000D11392EA0C0F93EA0C0F00F0478090EAD0
:100CE000010F48BF42F480724FF0004C4CEA0020E4
:100CF0004CEA012102EB0302A0FB0113A2F5000262
:100D0000002918BF43F001035B0028BF4FEA3303FB
:100D100042EB22425FEA132C4CEBC2502EBFBCEBDD
:100D2000436FB2F57C0F70474FEA036CBCF1004F84
:100D300008BF20F00100B2F57C0F38BF70470BD51B
:100D400082F0FF0212F5803FC8BF704700F1C0403B
:100D5000D8BF00F00040704700F5000C5FEA4C0C73
:100D600048BF7047B0F1C04000F073B890EA010F7F
:100D70000CEAD11348BF42F48072624538BF634524
:100D800004D280EA010000F00040704710B500F086
:100D90001AF800BF8900013E00F007B800F009B85A
:100DA0005FEA410C5FEA1C6C08D080EA010000F0A9
:100DB00050B85FEA400C5FEA1C6CF6D14FF000407F
:100DC000A0F5800070470EF1020E2EF0030E5EF8C3
:100DD000044B244204D44FEA4102B2F17F4F11D8B0
:100DE0004FEA4003B3F17F4F0CD80ED14FEAD07CCD
:100DF000B2F17F4F0CEB4C0C0CF1020C08BF4CEB2A
:100E0000D17C04E04FF0080C01E04FEAD17C0CEB00
:100E10004C0324FA03F404F00704B4F1040C06D2E2
:100E20000EEB840CBDE810404CF0010C6047DFE88D
:100E30000CF0070802024FF00040A0F5800010BD42
:100E40000846420018BFD2F1807288BF00F000400F
:100E500010BDFF2141EAD050C00570477C0E00084C
:100E6000000000200C0000005C010008880E000853
:100E70000C0000206406000078010008000000005B
:080E800000000000000000006A
:04000005080001BD31
:00000001FF
