:020000040800F2
:1000000068060020BD010008C5010008C7010008FE
:10001000C9010008CB010008CD0100080000000064
:10002000000000000000000000000000CF010008F8
:10003000D101000800000000D3010008D50100082C
:10004000D7010008D7010008D7010008D701000830
:10005000D7010008D7010008D7010008D701000820
:10006000D7010008D7010008D7010008D701000810
:10007000D7010008D7010008D7010008D701000800
:10008000D7010008D7010008D701000800000000D0
:10009000000000000000000000000000D701000880
:1000A000D7010008D7010008D7010008D7010008D0
:1000B000D7010008D7010008D7010008D7010008C0
:1000C000D7010008D7010008D7010008D7010008B0
:1000D000D7010008D7010008D7010008D7010008A0
:1000E00079020008D7010008D701000800000000CD
:1000F0000000000000000000000000000000000000
:1001000000000000000000000000000000000000EF
:100110000000000000000000D7010008D70100081F
:1001200000F002F800F03AF80AA090E8000C8244CF
:100130008344AAF10107DA4501D100F02FF8AFF2AC
:10014000090EBAE80F0013F0010F18BFFB1A43F0B5
:1001500001031847C8050000E8050000103A24BF55
:1001600078C878C1FAD8520724BF30C830C144BF1C
:1001700004680C607047000000230024002500265E
:10018000103A28BF78C1FBD8520728BF30C148BFFA
:100190000B6070471FB51FBD10B510BD00F031F8E2
:1001A0001146FFF7F7FF00F0B3FA00F04FF803B481
:1001B000FFF7F2FF03BC00F057F800000948804742
:1001C00009480047FEE7FEE7FEE7FEE7FEE7FEE739
:1001D000FEE7FEE7FEE7FEE704480549054A064B51
:1001E000704700000D06000821010008680000208B
:1001F00068060020680200206802002070477047EF
:100200007047754600F02CF8AE4605006946534627
:1002100020F00700854618B020B5FFF7DDFFBDE8E8
:1002200020404FF000064FF000074FF000084FF05D
:10023000000B21F00701AC46ACE8C009ACE8C009EE
:10024000ACE8C009ACE8C0098D46704710B504465B
:10025000AFF300802046BDE81040FFF7A8BF0000C4
:10026000004870470400002001491820ABBEFEE79B
:10027000260002007047000010B54FF4806000F0C7
:1002800013F820B104480068401C034908604FF48B
:10029000806000F003F810BD0000002001490860F4
:1002A0007047000014040140014600200022074B63
:1002B0001B6803EA0102054B14331B680B4013B1A2
:1002C0000AB1012000E00020704700000004014056
:1002D000002123498279002A3AD00A46126803682D
:1002E0009A430B461A600A1D126803689A430B1D55
:1002F0001A60027911440A6803681A430A60184AAE
:100300000832126803689A43154B08331A601A1DA5
:10031000126803689A43124B0C331A604279102A10
:100320000ED11A1F126803681A430D4B08331A6066
:100330001A1D126803681A43094B0C331A600DE04A
:100340000749427911440A6803681A430A6005E0C4
:10035000027911440A6803689A430A6070470000F2
:100360000004014030B500228B071C0F0F2303FA55
:1003700004F20B4B8C1053F824309343084C8D102F
:1003800044F8253023468C1053F824308C07240F72
:1003900000FA04F42343024C8D1044F8253030BD9C
:1003A000080001402DE9F04102460025002600200A
:1003B00000230024002791F803C00CF00F0591F8EA
:1003C00003C00CF0100CBCF1000F03D091F802C078
:1003D0004CEA050591F800C0BCF1000F31D014685B
:1003E00000202BE04FF0010C0CFA00F3B1F800C034
:1003F0000CEA03069E4220D183004FF00F0C0CFA4A
:1004000003F7BC4305FA03FC4CEA040491F803C06B
:10041000BCF1280F06D14FF0010C0CFA00FCC2F819
:1004200014C00AE091F803C0BCF1480F05D14FF0A9
:10043000010C0CFA00FCC2F810C0401C0828D1D3F3
:100440001460B1F800C0BCF1FF0F34DD5468002027
:100450002EE000F1080C4FF0010808FA0CF3B1F897
:1004600000C00CEA03069E4221D183004FF00F0C1E
:100470000CFA03F7BC4305FA03FC4CEA040491F8B8
:1004800003C0BCF1280F05D100F1080C08FA0CF8E4
:10049000C2F8148091F803C0BCF1480F07D100F1F5
:1004A000080C4FF0010808FA0CF8C2F81080401C44
:1004B0000828CED35460BDE8F081000070B500215B
:1004C00000230F22C47804B3154C246804F4E064BC
:1004D000C4F5E064210AC1F10403CA40447804FA77
:1004E00003F184781440214309010E4C0678A1558C
:1004F000047804F01F050124AC4005786D11AD00AF
:1005000005F1E025C5F8004109E0047804F01F0575
:100510000124AC40044D0678761145F8264070BDA4
:100520000CED00E000E400E080E100E029B1064AC3
:1005300092690243044B9A6104E0034A9269824340
:10054000014B9A61704700000010024010B500F0A6
:1005500001F810BD0CB50020019000902A480068F9
:1005600040F480302849086000BF2748006800F444
:10057000003000900198401C0190009818B9019833
:10058000B0F5A06FF1D12048006800F4003010B140
:100590000120009001E0002000900098012831D156
:1005A000194840681849486008464068486008464D
:1005B000406848600846406820F47C10486008465F
:1005C000406840F4981048600846006840F0807029
:1005D000086000BF0C48006800F000700028F9D0E7
:1005E0000948406820F00300074948600846406811
:1005F00040F00200486000BF0348406800F00C0073
:100600000828F9D10CBD00000010024010B51448B4
:10061000006840F00100124908600846406811492E
:1006200008400F494860084600680F4908400C49D7
:1006300008600846006820F480200860084640688A
:1006400020F4FE0048604FF41F0088600020C8625C
:10065000FFF77CFF4FF000600449086010BD000008
:10066000001002400000FFF8FFFFF6FE08ED00E07A
:100670000EB501210846FFF759FF00210846FFF794
:1006800071FE4FF48060019001208DF80A00002077
:100690008DF8080008208DF8090001A8FFF718FE62
:1006A00028208DF8000001208DF803008DF801004E
:1006B0008DF802006846FFF701FF0EBD08B5012165
:1006C0000420FFF733FF01211020FFF72FFF282020
:1006D0008DF803004FF48060ADF8000003208DF822
:1006E000020069460848FFF75DFE10208DF8030000
:1006F0004001ADF8000003208DF802006946034870
:10070000FFF750FE08BD0000000801400010014046
:10071000FFF7D4FFFFF7ACFF00BFFEE73C07000880
:1007200000000020040000005C01000840070008F1
:1007300004000020640600007801000800000000AA
:04000005080001BD31
:00000001FF
