:020000040800F2
:1000000098040020010100082B120008DB110008F1
:100010002912000879020008BD1300080000000042
:100020000000000000000000000000002F12000887
:100030007B020008000000002D12000831120008A9
:100040001B0100081B0100081B0100081B01000820
:100050001B0100081B0100081B0100081B01000810
:100060001B0100081B0100081B0100081B01000800
:100070001B0100081B0100081B0100081B010008F0
:100080001B0100081B010008990100081B01000862
:100090001B0100081B0100081B0100081B010008D0
:1000A0001B0100081B0100081B0100081B010008C0
:1000B0001B0100081B010008000000001B010008D4
:1000C0001B01000800000000000000001B010008E8
:1000D000000000001B0100081B01000800000000D8
:1000E0001B0100081B0100081B010008DFF80CD0F1
:1000F00000F040F8004800478915000898040020E7
:100100000648804706480047FEE7FEE7FEE7FEE7B1
:10011000FEE7FEE7FEE7FEE7FEE7FEE79D120008CA
:10012000ED000008D2B201E000F8012B491EFBD21D
:1001300070470022F6E710B513460A4604461946F2
:10014000FFF7F0FF204610BD30B50B4601460020FA
:100150002022012409E021FA02F59D4205D303FA89
:1001600002F5491B04FA02F52844151EA2F101020A
:10017000F1DC30BD064C074D06E0E06840F00103BD
:1001800094E8070098471034AC42F6D3FFF7B2FF6B
:100190003816000858160008014800F008B9000099
:1001A0001400002070B5044600688168C943C9077F
:1001B00017D1816821F00101816000F0A7FB05469D
:1001C0000AE000BF00F0A2FB401B022804D920680F
:1001D0008068C043C00706D020688068C043C0075D
:1001E000F0D0002070BDA06A40F01000A062E06A6C
:1001F00040F00100E062012070BD0000F8B500266B
:100200000446009600688168C943C9072DD08168FB
:1002100041F001018160164816490068B0FBF1F019
:1002200000E0401E00900028FBD100F06FFB054667
:1002300016E000BF00F06AFB401B022810D92068BE
:100240008068C043C0070BD0A06A40F01000A062D5
:10025000E06A40F00100E06284F824600120F8BD0B
:1002600020688068C043C007E4D10020F8BD0000CA
:100270001000002040420F00FEE77047704700006A
:10028000F8B50024009490F824202546012A12D0C5
:10029000012280F824204A681F23072A0DD206680D
:1002A000776B521E02EB820293409F430B68934090
:1002B0001F43776319E00220F8BD06680D2A0AD2B1
:1002C000376BD21F02EB820293409F430B6893402F
:1002D0001F43376309E0F76A0D3A02EB820293404D
:1002E0009F430B6893401F43F7620A680723066821
:1002F0000A2A0AD3F7680A3A02EB420293409F4364
:100300008B6893401F43F76008E0376902EB4202B5
:1003100093409F438B6893401F4337610A68102ABC
:1003200001D0112A20D1124B02689A4217D193684A
:100330001B0219D4936843F40003936009681029E1
:1003400012D10C490C4A0968B1FBF2F101EB8101B1
:10035000490000E0491E00910029FBD104E0816AB8
:1003600041F020018162012480F824502046F8BD2C
:10037000002401401000002040420F0010B500682A
:100380000649884209D1064800F00EF80549086080
:10039000BDE81040024800F0A7B910BD002401409C
:1003A00014000020000000200068C06C704710B5E9
:1003B000044600684168890626D50168890723D567
:1003C000A16AC90603D4A16A41F40071A1628168DF
:1003D000C1F34241072910D1217B71B9416821F055
:1003E00020014160A06A20F48070A062A06AC0046D
:1003F00003D4A06A40F00100A0622046FFF7BEFFD0
:1004000021686FF0120008602068416809062ED547
:10041000016849072BD5A16AC90603D4A16A41F432
:100420000051A1628168C1F30231072909D04168F6
:10043000490515D48168C1F34241072910D1217BB8
:1004400071B9416821F080014160A06A20F48050B8
:10045000A062A06AC00503D4A06A40F00100A062B7
:100460002046FFF70BFF21686FF00C000860206842
:10047000416849060DD50068C0070AD0A06A40F45B
:100480008030A062204600F093F821686FF00100F0
:10049000086010BD2DE9F0414FF0000704003D4613
:1004A0007ED0A06A002628B9E66284F8246020463F
:1004B00000F080F82046FFF775FEA16AC90600D457
:1004C00020B1A06A40F01000A06269E0A16A21F4A6
:1004D000885141F00201A1626268E169237B0A430D
:1004E00047EA43010A43A1684FF48077B94209D033
:1004F000012907D05FF0000194F814C0BCF1010F8E
:1005000002D00AE03946F7E7F3B1A36A43F02003CB
:10051000A362E36A43F00103E3622368D3F804C0F3
:100520002CF4694C4CEA010CC3F804C021688B68B8
:10053000DFF870C003EA0C0313438B60A168B94273
:100540000BD0012909D00CE0DFF85CC0A3690CEBEB
:1005500043330B4343F40061DFE7218A0D05A5F522
:1005600080152168CB6A23F470032B43CB6221688A
:1005700089680E4B1940914208D1E662A16A21F0C8
:10058000020141F00101A162BDE8F081A06A20F002
:10059000020040F01000A062E06A40F00100E0625A
:1005A0000120F1E7FDF7E1FF00E0FFFFFE0E1FFF76
:1005B0007047000000B585B00021009101910291C3
:1005C000039100681249884220D11248816941F4A0
:1005D00000718161816901F400710491816941F0C8
:1005E000040181618069694600F0040004900220E2
:1005F000009003200190084800F0A8F8002211465E
:10060000122000F0EFF9122000F0DEF905B000BD75
:1006100000240140001002400008014070B504466B
:1006200090F8240001280DD0012084F824002046F1
:10063000FFF7E4FD02004FF0000005D084F824002D
:10064000104670BD022070BDA16A40F60163994357
:1006500041F48071A162224D23682249AB4218D136
:100660000E6816F4702F14D0A66A46F48016A6629F
:100670000E68760505D5A66A26F4005646F480561F
:10068000A662A66AF6040AD5E66A26F00606E662BF
:1006900006E0A66A26F48016A6625E68E9E7E062D4
:1006A00084F824006FF0020018602068436843F06B
:1006B0002003436020688368C3F34243072B05D1BE
:1006C000A84208D1096811F4702F04D0816841F460
:1006D00080118160B4E7816841F4A001F9E700006E
:1006E000002801400424014010B5044690F824007D
:1006F000012807D0012084F824002046FFF752FD8E
:1007000010B10CE0022010BD21684A6822F02002DE
:100710004A60A16A21F4885141F00101A1620021DF
:1007200084F8241010BD000070B5044600F0EEF807
:100730000546601C02D004480078044400F0E6F846
:10074000401BA042FAD370BD040000202DE9F84FF1
:10075000DFF89C91002409F1040A0AF1040B2346F6
:100760000F270BF1040EBBE00125A5402A40AA4249
:1007700076D1DFF880C14E68A6EB0C0866452BD019
:100780000DDC032E34D005DC36B3012E19D0022E39
:100790002FD11BE0112E16D0122E2AD119E0B8F558
:1007A000881F19D006DCB8F5803F15D0B8F5801F3A
:1007B0001FD111E0B8F5001F0ED0B8F5041F18D1F5
:1007C0000AE0CB6815E0CB681B1D12E0CB6808334C
:1007D0000FE0CB680C330CE08B682BB1012B4FF092
:1007E000080303D0456104E0042302E0056100E052
:1007F0000023FF2A01D8064601E000F104064FEA73
:10080000840501D9A5F12005D6F8008007FA05FC7A
:1008100028EA0C0803FA05F548EA0508C6F800803E
:100820004D68ED005BD5344DAE6946F00106AE6112
:10083000AD6924F0030605F0010500952F4D06EB88
:10084000050CDCF80850A607360F07FA06F825EA6B
:100850000805DFF8AC80404503D14FF0000810E0F8
:100860003DE0DFF8A080404502D14FF0010808E0EC
:10087000DFF89480404502D14FF0020801E04FF0CC
:10088000030808FA06F848EA0508CCF808804D681D
:10089000D9F80060ED034D4601D5164300E09643BC
:1008A0002E604D68DAF80060AD03554601D5164359
:1008B00000E096432E604D68DBF80060ED025D4677
:1008C00001D5164300E096432E604D68DEF80060C7
:1008D000AD02754601D5164300E096432E60641CB8
:1008E0000A6832FA04F57FF43FAFBDE8F88F0000E4
:1008F00000040140000011100010024000000140FF
:1009000000080140000C01400010014001488068CF
:1009100070470000040000200248816802781144FA
:100920008160704704000020074810B5016841F05D
:1009300010010160032000F075F8002000F006F8B7
:1009400000F024F8002010BD0020024070B50D4DCD
:1009500004464FF47A712878B1FBF0F00A4909682F
:10096000B1FBF0F000F062FB48B9102C07D2002276
:100970002146501E00F036F800206C6070BD01204A
:1009800070BD000004000020100000200C4808B5D5
:10099000816941F001018161816901F001010091EA
:1009A000C16941F08051C161C06900F08050009080
:1009B0000448416821F0E06141F08061416008BD78
:1009C0000010024000000140002809DB00F01F0277
:1009D000012191404009800000F1E020C0F80011A1
:1009E00070470000F0B40E4B1B680C46C3F30223A3
:1009F000C3F10705042D00D90425191D072901D2CB
:100A0000002300E0DB1E012606FA05F1491E214005
:100A100099409E40761E16403143F0BC00F0E4BC85
:100A20000CED00E0064900F0070208684FF6FF03EE
:100A3000184040EA0220034A104308607047000053
:100A40000CED00E00000FA052DE9F84305460078BA
:100A5000354CC00754D0E0690026C00008D4E069D6
:100A600040F08050E061E069012600F08050009085
:100A70002E480168C90512D40168804641F480718E
:100A80000160FFF743FF074605E000BFFFF73EFFA9
:100A9000C01B642823D8D8F80000C005F6D5206A0A
:100AA00010F4407021D0A98801F4407181421CD01B
:100AB000206A1F49012220F440700A6000220A6067
:100AC0002062C00711D0FFF721FF074641F28838A6
:100AD00008E000BFFFF71AFFC11B414502D9032000
:100AE000BDE8F883206A8007F4D5206A696820F49D
:100AF0004070084320621EB1E06920F08050E06140
:100B00002878800705D56068A96820F4404008432C
:100B100060602878C00605D56068E96820F4800028
:100B2000084360600020DBE70010024000700040D6
:100B3000400442422DE9F0470F46050061D0434E84
:100B4000306800F00700B84209D2306820F0070092
:100B500038433060306800F00700B84251D128684F
:100B60003B4C810712D5400703D5606840F4E06034
:100B700060602878000703D5606840F460506060CA
:100B80006068A96820F0F000084360602878C0071A
:100B900028D06868012810D02168022810D0890761
:100BA00000292EDA616821F0030101436160FFF73B
:100BB000ADFE804641F288390DE021688903EFE7F8
:100BC0008901EDE7FFF7A2FEA0EB0801494502D934
:100BD0000320BDE8F0876068696800F00C00B0EBA6
:100BE000810FEFD1306800F00700B8420BD93068B0
:100BF00020F0070038433060306800F00700B8424A
:100C000001D00120E5E72878400705D56068E9684C
:100C100020F4E060084360602878000706D560682B
:100C2000296920F4605040EAC100606000F038F8A3
:100C30006168084AC1F30311515CC8400649086065
:100C400006480068FFF782FE0020C2E7002002404D
:100C500000100240201600081000002008000020AC
:100C60000448054900684968044AC1F30221515CFF
:100C7000C8407047100000200010024030160008E5
:100C80000448054900684968044AC1F3C221515C1F
:100C9000C8407047100000200010024030160008C5
:100CA00012A185B00FC98DE80F0014A0144A006886
:100CB00004905168134801F00C03042B10D0082B4A
:100CC0000ED1C1F38343C9031DF803000AD551684F
:100CD00004AAC1F34041515C0A4A5043B0FBF1F011
:100CE00005B0704708494843FAE7000002030405CD
:100CF000060708090A0B0C0D0E0F10100102000068
:100D00000010024000127A0000093D002DE9F84F62
:100D1000040070D02078C04DC00749D06868C0F387
:100D20008100012807D06868C0F38100022809D13A
:100D30006868C00306D52868800339D56068002834
:100D4000E7D035E06068B0F5803F0BD010B1B0F56A
:100D5000A02F11D0286820F480302860286820F463
:100D6000802002E0286840F480302860606890B1FC
:100D7000FFF7CCFD06460AE0286840F48020286092
:100D8000F0E700BFFFF7C2FD801B642873D8286816
:100D90008003F7D50CE0FFF7B9FD064605E000BF7C
:100DA000FFF7B4FD801B6428F0D828688003F7D4CF
:100DB00020789A4E80074FF001094FF0000839D58E
:100DC000686810F00C0F07D06868C0F38100022833
:100DD00009D16868C00306D42868800714D5206943
:100DE000012808D110E02069B0B1C6F80090FFF7E3
:100DF0008DFD074605E00AE1FFF788FDC01B0228CC
:100E0000C4D828688007F7D52868616920F0F80001
:100E100040EAC10028600DE0C6F80080FFF776FDCB
:100E2000074604E0FFF772FDC01B022823D828689C
:100E30008007F7D4207800072CD57948A169D9B16B
:100E4000C0F80090FFF762FD074604E0FFF75EFD83
:100E5000C01B02280FD8686A8007F7D571484FF485
:100E6000FA510068B0FBF1F0009000BF0098411EFD
:100E70000091FAD20EE080E0C0F80080FFF746FD56
:100E8000074604E0FFF742FDC01B022875D8686AD8
:100E90008007F7D42078400760D5E8690027C000B4
:100EA00008D4E86940F08050E861E869012700F063
:100EB000805000905C480168C90513D401688346DE
:100EC00041F480710160FFF721FD824606E000BF1A
:100ED000FFF71CFDA0EB0A0064284ED8DBF80000E9
:100EE000C005F5D5E06801280AD008B1052813D05F
:100EF000286A20F001002862286A20F0040002E03D
:100F0000286A40F001002862E06841F2883B98B10D
:100F1000FFF7FCFC82460BE0286A40F004002862E0
:100F2000EEE700BFFFF7F2FCA0EB0A0159455AD8E3
:100F3000286A8007F6D50CE0FFF7E8FC824605E05A
:100F4000FFF7E4FCA0EB0A0159454CD8286A80075A
:100F5000F6D41FB1E86920F08050E861E06988B3F9
:100F60006968C1F38101022944D00228C6F8608073
:100F700004D0FFF7CBFC044638E034E0FFF7C6FCB2
:100F8000074604E0FFF7C2FCC01B02282BD82868E4
:100F90008001F7D4206AB0F5803F05D16868A16868
:100FA00020F4003008436860D4E908010843696808
:100FB00021F4741108436860C6F86090FFF7A6FC3E
:100FC000044606E025E000BFFFF7A0FC001B022856
:100FD00009D828688001F7D51BE000BFFFF796FC11
:100FE000001B022802D90320BDE8F88F2868800181
:100FF000F4D40EE00128F7D06868226A00F480314A
:10100000914204D1616A00F47010884201D001203D
:10101000EAE70020E8E7000000100240000042423A
:1010200080044242100000200070004010B5401EB5
:10103000B0F1807F01D3012010BD4FF0E02460614A
:101040000F21601700F0D0F90020A0610720206177
:10105000002010BD70B5040004D094F83D000025B8
:1010600010B106E0012070BD84F83C50204600F02D
:1010700023F8242084F83D002068C16821F4005141
:10108000C160204600F00CF92068016921F490410C
:1010900001612068416921F02A0141612068C1682D
:1010A00041F40051C1602564202084F83D0084F89B
:1010B0003E00002070BD000030B585B000240094D3
:1010C00001940294039400681449884224D114487E
:1010D000816941F480418161816901F48041049119
:1010E000816941F00401816180690E4D00F00400C6
:1010F00004904FF4007000900220019003200390B0
:1011000069462846FFF722FB2815CDE90004694609
:1011100028460294FFF71AFB05B030BD00380140A5
:1011200000100240000801402DE9F843044690F801
:101130003D001F4616460D4620284CD1C5B1BEB114
:1011400094F83C00012846D0012084F83C004FF080
:101150000008C4F84080212084F83D00FFF7D6FB4A
:10116000A6848146E684A068B0F5805F03D004E0E1
:101170000120BDE8F883206928B12E465FF0000504
:1011800084F83C800EE00026FAE78021204600F03B
:10119000E3F8A0B9AEB116F8010B21684860E08C05
:1011A000401EE084E08C4B464FF000020097002880
:1011B000EBD14FF04001204600F0CEF830B10320D3
:1011C000D7E735F8020BC0F30800E6E7202084F8E3
:1011D0003D000020CDE70220CBE7FEE73EB500242E
:1011E00010480094019402940D49846001600473D6
:1011F0000475012505614FF460214460C161FFF76A
:1012000049F908B172B6FEE70095CDE90154694687
:101210000448FFF735F8002801D072B6FEE73EBD5E
:101220000024014014000020FEE7FEE770477047ED
:10123000FFF772BB30B593B028216846FEF779FFFF
:1012400014210AA8FEF775FF002401200F9402253F
:101250000490009510201194059010941294079416
:101260006846FFF753FD08B172B6FEE70F20CDE9DF
:101270000A040C940D9400210AA80E94FFF75AFC5E
:1012800008B172B6FEE70FA80F951194FFF7DCFBCB
:10129000002801D072B6FEE713B030BD70470000E1
:1012A00070B5044600680169E26821F440511143B9
:1012B00001612169A0680843616908432168CA681F
:1012C00041F20C639A430243CA6020684169A269F3
:1012D00021F44071114341611E492068884202D1C6
:1012E000FFF7CEFC01E0FFF7BBFC00EBC00101EB18
:1012F0000012606864218000B2FBF0F3B3FBF1F3ED
:101300006FF018067343B2FBF0F5B2FBF0F605EB95
:101310008305322303EB0515B5FBF1F5B6FBF1F6BA
:1013200005F0F00505EB0615B2FBF0F6B2FBF0F0A8
:10133000B0FBF1F06FF01802504306EB800003EBB6
:101340000010B0FBF1F0216800F00F002844886025
:1013500070BD0000003801402DE9F0419846174665
:101360000E460446069D1DE0681C1BD02DB1FFF7FC
:10137000CDFAA0EB0800A84214D92068C16821F476
:10138000D071C1602068416921F0010141612020D4
:1013900084F83D0084F83E00002084F83C000320DF
:1013A000BDE8F0812068006836EA000004D0002023
:1013B000B842D9D00020F3E70120F9E7FEE70000AA
:1013C0000FB4084B10B504A902AA039800F02CF83A
:1013D000044602A9002000F0D1F8204610BC5DF8B8
:1013E00014FB00007D1500080907090E002804DB26
:1013F00000F1E02080F80014704700F00F0000F1C9
:10140000E02080F8141D704702E008C8121F08C1D0
:10141000002AFAD170477047002001E001C1121F75
:10142000002AFBD1704700002DE9FF4F89B09B4691
:101430000446002506E025280BD05A460B99904714
:10144000641C6D1C20780028F5D10DB02846BDE83D
:10145000F08F0027B8460122474900E0074314F8FF
:10146000013F203B02FA03F00842F7D120782E28F2
:1014700019D114F8010F47F004072A280ED06FF095
:101480002F022078A0F1300109290CD808EB88013F
:1014900002EB410100EB0108641CF2E70A98641CAE
:1014A00050F8048B0A9020780028CED0642808D009
:1014B000692806D075281ED05A460B9990476D1C96
:1014C00058E00A994FF00A0901C90A91002802DA86
:1014D00040422D2102E0390504D52B218DF8201042
:1014E000012103E0F90704D02021F7E78A4608AE7E
:1014F0000DE00021FAE70A994FF00A0901C90A91A3
:10150000F7E74946FEF720FE303106F8011D0028B6
:10151000F7D1ADEB060000F12009780701D44FF0B8
:101520000108C84502DDA8EB090000E00020804664
:10153000002706E008A85A46C05D0B9990476D1C2D
:101540007F1C5745F6DB04E030205A460B99904744
:101550006D1CB8F10001A8F10108F5DC05E016F8F2
:10156000010B5A460B9990476D1CB9F10001A9F186
:101570000109F4DC641C65E7092801000A68531CB2
:101580000B6010707047000008B5FFF7CDF9FFF74A
:1015900051FE1C48816941F004018161806900F0BD
:1015A00004000090FFF71AFE184817490C2201604A
:1015B0004FF41651416000218160C160C0E90412FE
:1015C0008161C161FFF746FD08B172B6FEE70F48C1
:1015D0003038FFF723F80E4E4FF0FF344FF4FA7512
:1015E0000A480CA144303268FFF7EAFE0749234657
:1015F0000A2244310548FFF797FD2846FFF794F883
:10160000EEE70000001002400038014044000020D6
:1016100000000020706F743A2564200D0A0000005D
:101620000000000000000000010203040607080992
:10163000000000000102030458160008000000200A
:1016400014000000081400086C16000814000020A4
:1016500084040000181400080000000001000000CD
:0C16600010000000000000000024F40056
:04000005080000ED02
:00000001FF
